:020000040800F2
:1000000000800120B9150008E5130008ED13000871
:10001000F5130008FD130008051400080000000097
:100020000000000000000000000000000D140008A7
:100030001B140008000000002914000837140008F1
:100040000916000809160008091600080916000814
:100050000916000809160008091600080916000804
:1000600009160008091600080916000809160008F4
:1000700009160008091600080916000809160008E4
:1000800009160008091600080916000800000000FB
:100090000000000000000000000000000916000839
:1000A00009160008091600080916000809160008B4
:1000B00009160008091600080916000809160008A4
:1000C0000916000809160008091600080916000894
:1000D00009160008091600080916000800000000AB
:1000E000091600080916000809160008000000009B
:1000F00000000000000000000000000009160008D9
:10010000000000000916000809160008091600087A
:1001100000000000000000000000000000000000DF
:100120000916000809160008091600080916000833
:100130000916000800000000000000000000000098
:100140000000000000000000000000000916000888
:100150000916000809160008091600080916000803
:100160000916000809160008000000000000000041
:10017000000000000000000000000000000000007F
:100180000000000009160008000000000000000048
:040190000916000844
:1001A00010B5054C237833B9044B13B10448AFF3B1
:1001B00000800123237010BD7000002000000000AB
:1001C0008C2F000808B5034B1BB103490348AFF35C
:1001D000008008BD00000000740000208C2F000883
:1001E00001F0FF01102A2BDB10F0070F08D010F8E8
:1001F000013B013A8B422DD010F0070F42B3F6D1EC
:10020000F0B441EA012141EA014122F007047FF004
:1002100000070023F0E80256083C85EA010586EA5B
:10022000010685FA47F5A3FA87F586FA47F6A5FA97
:1002300087F68EB9EED1F0BC01F0FF0102F00702A3
:1002400032B110F8013B013A83EA010313B1F8D14E
:100250000020704701387047002D06BF354603382F
:10026000073815F0010F07D1013015F4807F02BF68
:10027000013015F4C03F0130F0BC0138704700BFB9
:1002800081F0004102E000BF83F0004330B54FEA47
:1002900041044FEA430594EA050F08BF90EA020FB4
:1002A0001FBF54EA000C55EA020C7FEA645C7FEA47
:1002B000655C00F0E2804FEA5454D4EB5555B8BF6A
:1002C0006D420CDD2C4480EA020281EA030382EADB
:1002D000000083EA010180EA020281EA0303362D6D
:1002E00088BF30BD11F0004F4FEA01314FF4801C40
:1002F0004CEA113102D0404261EB410113F0004F52
:100300004FEA03334CEA133302D0524263EB430308
:1003100094EA050F00F0A780A4F10104D5F1200EA6
:100320000DDB02FA0EFC22FA05F2801841F1000101
:1003300003FA0EF2801843FA05F359410EE0A5F1D5
:1003400020050EF1200E012A03FA0EFC28BF4CF006
:10035000020C43FA05F3C01851EBE37101F00045BC
:1003600007D54FF0000EDCF1000C7EEB00006EEBC9
:100370000101B1F5801F1BD3B1F5001F0CD3490853
:100380005FEA30004FEA3C0C04F101044FEA4452AA
:1003900012F5800F80F09A80BCF1004F08BF5FEA31
:1003A000500C50F1000041EB045141EA050130BD11
:1003B0005FEA4C0C404141EB0101013C28BFB1F523
:1003C000801FE9D291F0000F04BF01460020B1FA6E
:1003D00081F308BF2033A3F10B03B3F120020CDA41
:1003E0000C3208DD02F1140CC2F10C0201FA0CF01F
:1003F00021FA02F10CE002F11402D8BFC2F1200C84
:1004000001FA02F120FA0CFCDCBF41EA0C01904039
:10041000E41AA2BF01EB0451294330BD6FEA040482
:100420001F3C1CDA0C340EDC04F11404C4F120026D
:1004300020FA04F001FA02F340EA030021FA04F37F
:1004400045EA030130BDC4F10C04C4F1200220FAD6
:1004500002F001FA04F340EA0300294630BD21FA14
:1004600004F0294630BD94F0000F83F4801306BFDA
:1004700081F480110134013D4EE77FEA645C18BFCE
:100480007FEA655C29D094EA050F08BF90EA020F65
:1004900005D054EA000C04BF1946104630BD91EA5D
:1004A000030F1EBF0021002030BD5FEA545C05D160
:1004B0004000494128BF41F0004130BD14F580049F
:1004C0003CBF01F5801130BD01F0004545F0FE4113
:1004D00041F470014FF0000030BD7FEA645C1ABF48
:1004E000194610467FEA655C1CBF0B46024650EA7F
:1004F000013406BF52EA033591EA030F41F40021AB
:1005000030BD00BF90F0000F04BF0021704730B530
:100510004FF4806404F132044FF000054FF0000105
:1005200050E700BF90F0000F04BF0021704730B5C6
:100530004FF4806404F1320410F0004548BF40429B
:100540004FF000013EE700BF42004FEAE2014FEAF0
:1005500031014FEA02701FBF12F07F4393F07F4FCB
:1005600081F06051704732F07F4208BF704793F0CE
:100570007F4F04BF41F40021704730B54FF46074E1
:1005800001F0004521F000411CE700BF50EA0102E4
:1005900008BF704730B54FF000050AE050EA01028D
:1005A00008BF704730B511F0004502D5404261EBFD
:1005B00041014FF4806404F132045FEA915C3FF43E
:1005C000D8AE4FF003025FEADC0C18BF03325FEADB
:1005D000DC0C18BF033202EBDC02C2F1200300FA8C
:1005E00003FC20FA02F001FA03FE40EA0E0021FAB1
:1005F00002F11444BDE600BF70B54FF0FF0C4CF49F
:10060000E06C1CEA11541DBF1CEA135594EA0C0F50
:1006100095EA0C0F00F0DEF82C4481EA030621EA8B
:100620004C5123EA4C5350EA013518BF52EA0335C6
:1006300041F4801143F4801338D0A0FB02CE4FF078
:100640000005E1FB02E506F00042E0FB03E54FF0A8
:100650000006E1FB03569CF0000F18BF4EF0010EA0
:10066000A4F1FF04B6F5007F64F5407404D25FEA9C
:100670004E0E6D4146EB060642EAC62141EA55514F
:100680004FEAC52040EA5E504FEACE2EB4F1FD0C91
:1006900088BFBCF5E06F1ED8BEF1004F08BF5FEA0F
:1006A000500E50F1000041EB045170BD06F00046C1
:1006B00046EA010140EA020081EA0301B4EB5C046E
:1006C000C2BFD4EB0C0541EA045170BD41F4801166
:1006D0004FF0000E013C00F3AB8014F1360FDEBF8B
:1006E000002001F0004170BDC4F10004203C35DA67
:1006F0000C341BDC04F11404C4F1200500FA05F3EA
:1007000020FA04F001FA05F240EA020001F000428A
:1007100021F0004110EBD37021FA04F642EB060100
:100720005EEA430E08BF20EAD37070BDC4F10C042A
:10073000C4F1200500FA04F320FA05F001FA04F2EE
:1007400040EA020001F0004110EBD37041F10001DA
:100750005EEA430E08BF20EAD37070BDC4F12005E5
:1007600000FA05F24EEA020E20FA04F301FA05F24D
:1007700043EA020321FA04F001F0004121FA04F2F5
:1007800020EA020000EBD3705EEA430E08BF20EAC5
:10079000D37070BD94F0000F0FD101F000464000FF
:1007A00041EB010111F4801F08BF013CF7D041EA81
:1007B000060195F0000F18BF704703F00046520085
:1007C00043EB030313F4801F08BF013DF7D043EA56
:1007D0000603704794EA0C0F0CEA135518BF95EA0C
:1007E0000C0F0CD050EA410618BF52EA4306D1D193
:1007F00081EA030101F000414FF0000070BD50EAB2
:10080000410606BF1046194652EA430619D094EA3B
:100810000C0F02D150EA013613D195EA0C0F05D125
:1008200052EA03361CBF104619460AD181EA030179
:1008300001F0004141F0FE4141F470014FF0000031
:1008400070BD41F0FE4141F4780170BD70B54FF0CC
:10085000FF0C4CF4E06C1CEA11541DBF1CEA13554C
:1008600094EA0C0F95EA0C0F00F0A7F8A4EB05042E
:1008700081EA030E52EA03354FEA013100F0888025
:100880004FEA03334FF0805545EA131343EA1263EE
:100890004FEA022245EA111545EA10654FEA0026A3
:1008A0000EF000419D4208BF964244F1FD0404F55C
:1008B000407402D25B084FEA3202B61A65EB0305B8
:1008C0005B084FEA32024FF480104FF4002CB6EB75
:1008D000020E75EB030E22BFB61A754640EA0C00F5
:1008E0005B084FEA3202B6EB020E75EB030E22BF35
:1008F000B61A754640EA5C005B084FEA3202B6EB76
:10090000020E75EB030E22BFB61A754640EA9C0034
:100910005B084FEA3202B6EB020E75EB030E22BF04
:10092000B61A754640EADC0055EA060E18D04FEAC2
:10093000051545EA16754FEA06164FEAC30343EA62
:1009400052734FEAC2025FEA1C1CC0D111F4801F2F
:100950000BD141EA00014FF000004FF0004CB6E728
:1009600011F4801F04BF01430020B4F1FD0C88BFC7
:10097000BCF5E06F3FF6AFAEB5EB030C04BFB6EBD2
:10098000020C5FEA500C50F1000041EB045170BDC5
:100990000EF0004E4EEA113114EB5C04C2BFD4EBF2
:1009A0000C0541EA045170BD41F480114FF0000E76
:1009B000013C90E645EA060E8DE60CEA135594EAF2
:1009C0000C0F08BF95EA0C0F3FF43BAF94EA0C0FF5
:1009D0000AD150EA01347FF434AF95EA0C0F7FF46A
:1009E00025AF104619462CE795EA0C0F06D152EABE
:1009F00003353FF4FDAE1046194622E750EA4106A2
:100A000018BF52EA43067FF4C5AE50EA41047FF4B2
:100A10000DAF52EA43057FF4EBAE12E74A0011D264
:100A200012F5001211D20DD56FF47873B3EB625248
:100A30000ED44FEAC12343F0004343EA505323FA54
:100A400002F070474FF00000704750EA013002D1C9
:100A50004FF0FF3070474FF00000704753B94AB96C
:100A6000002908BF00281CBF4FF0FF314FF0FF30B6
:100A700000F088B9ADF1080C6DE904CE00F006F87D
:100A8000DDF804E0DDE9022304B070472DE9F0470A
:100A9000089D8E4604468846002B4AD18A42174656
:100AA00062D9B2FA82F64EB1C6F1200301FA06F815
:100AB00020FA03F3B74043EA0808B4404FEA174E60
:100AC0001FFA87FCB8FBFEF1230C0EFB118843EAEA
:100AD000084301FB0CF29A4209D9FB1801F1FF30DF
:100AE00080F0EA809A4240F2E78002393B449A1A49
:100AF000A3B2B2FBFEF00EFB102243EA024300FB5E
:100B00000CFC9C4509D9FB1800F1FF3280F0D6801F
:100B10009C4540F2D3803B44023840EA0140A3EBBD
:100B20000C0300211DB1F3400022C5E90032BDE8ED
:100B3000F0878B4205D90DB1C5E9000100210846B7
:100B4000F5E7B3FA83F1002946D1734502D3824217
:100B500000F20581841A6EEB030201209046002DFD
:100B6000E5D0C5E90048E2E7002A00F09080B2FA3B
:100B700082F6002E40F0A4808A1A030C4FEA174E2A
:100B800080B2BCB20121B2FBFEFC0EFB1C2243EA88
:100B9000024304FB0CF29A4207D9FB180CF1FF3810
:100BA00002D29A4200F2E080C4469B1AB3FBFEF2E6
:100BB0000EFB123340EA034302FB04F49C4207D9C4
:100BC000FB1802F1FF3002D29C4200F2CA800246BA
:100BD0001B1B42EA0C40A5E7C1F120068B4022FA1C
:100BE00006F71F430EFA01F420FA06F32EFA06FE6A
:100BF0004FEA1749234300FA01F81FFA87FCBEFBAE
:100C0000F9F01C0C09FB10EE44EA0E4400FB0CFE4C
:100C1000A64502FA01F209D93C1900F1FF3A80F029
:100C20009C80A64540F2998002383C44A4EB0E0417
:100C30001FFA83FEB4FBF9F309FB13444EEA0444A4
:100C400003FB0CFCA44508D93C1903F1FF3E80F0DE
:100C50008280A4457FD9023B3C4443EA0040A4EB98
:100C60000C04A0FB02EC64457346E14662D35FD0FE
:100C70005DB1B8EB030264EB090404FA06F622FA4C
:100C800001F31E43CC40C5E9006400214FE7B1FBEE
:100C9000F2FC010C41EA0E4180B240EA01423B46BF
:100CA00038463C46B846BE462026B1FBF7F1A2EBDB
:100CB000080241EA0C4166E7014618E710462CE7B6
:100CC000C6F120022EFA02F3B740B14020FA02F238
:100CD0004FEA174E0A43B3FBFEF8BCB20EFB1833C3
:100CE000110C41EA034108FB04F9B04089454FEA81
:100CF000104380B23ED9791808F1FF3C01D28945F2
:100D00001FD8A1EB0901B1FBFEF909FB04F80EFBAA
:100D1000191192B242EA0142424529D2BA1809F1A8
:100D2000FF31C4D24245C2D2A9F102013A44BEE722
:100D3000F0459DD2BEEB02036CEB070C0138E14697
:100D400096E7A7EB09094944A8F1020CB1FBFEF9AB
:100D500009FB04F8DBE773467FE7504666E7084681
:100D6000FDE63B44023A33E7ACF1020C3B441CE79E
:100D700049469CE7A1EB0901C446B1FBFEF909FB1A
:100D800004F8C4E7704700BF80B485B000AF786056
:100D90000023FB607B685B79032B1FD87B685B7942
:100DA0001A467B681B795B0002FA03F3FB607B68E1
:100DB0001B681A687B681B795B00032101FA03F347
:100DC000DB4319467B681B680A401A607B681B6816
:100DD00019687B681B68FA680A431A600023FB6085
:100DE0007B689B79032B1FD87B689B791A467B68AD
:100DF0001B795B0002FA03F3FB607B681B689A684F
:100E00007B681B795B00032101FA03F3DB4319467E
:100E10007B681B680A409A607B681B6899687B68DE
:100E20001B68FA680A439A600023FB607B68DB79E1
:100E3000032B1FD87B68DB791A467B681B795B0024
:100E400002FA03F3FB607B681B68DA687B681B7936
:100E50005B00032101FA03F3DB4319467B681B683F
:100E60000A40DA607B681B68D9687B681B68FA688F
:100E70000A43DA600023FB607B681B7A012B1DD8D4
:100E80007B681B7A1A467B681B7902FA03F3FB60C6
:100E90007B681B685A687B681B79194601238B4065
:100EA000DB4319467B681B680A405A607B681B68F5
:100EB00059687B681B68FA680A435A600023FB6024
:100EC0007B685B7A0F2B21D87B685B7A1A467B683C
:100ED0001B79083B9B0002FA03F3FB607B681B68ED
:100EE0005A6A7B681B79083B9B00042101FA03F3D3
:100EF000DB4319467B681B680A405A627B681B68A3
:100F0000596A7B681B68FA680A435A620023FB60CF
:100F10007B689B7A0F2B1FD87B689B7A1A467B686D
:100F20001B799B0002FA03F3FB607B681B681A6A5B
:100F30007B681B799B00042101FA03F3DB4319460C
:100F40007B681B680A401A627B681B68196A7B68A9
:100F50001B68FA680A431A620023FB6000BF14375B
:100F6000BD465DF8047B704780B586B000AF174B77
:100F70001B6B164A43F001031363154BFB600223FE
:100F80003B7402237B7400233B750223BB74002354
:100F9000FB740723BB7507F10C031846FFF7F4FE3B
:100FA0000B4B3B6003233B7102237B7100233B729D
:100FB0000223BB710023FB710723BB723B4618461B
:100FC000FFF7E2FE00BF1837BD4680BD0038024083
:100FD00000000240B0B588B000AF7860FFF7C4FFF2
:100FE000424B1B6C414A43F4003313647B681B681B
:100FF0000022DA607B681B68DA687B681B6842F451
:101000000052DA607B681B68DA687B681B6842F014
:101010000402DA607B681B68DA687B681B6842F050
:101020000802DA6000F064F9F8617B689B68002BC5
:1010300057D07B681B68DB68DB0BDBB203F0010376
:10104000FB76FB7E002B01D0082300E01023BB764B
:10105000F869FFF757FA04460D46BB7E7A68926836
:1010600002FB03F31846FFF74DFA02460B462046F3
:101070002946FFF7EBFB02460B46C7E90423D7E9F5
:101080000401FFF7CBFC0346FB60F868FFF73AFA70
:1010900002460B46D7E90401FFF7F6F802460B4675
:1010A00014461D46FB7E002B03D04FF00000104974
:1010B00002E04FF000000F4922462B46FFF79CFA52
:1010C00002460B4610461946FFF7A8FC0346BB60D4
:1010D000FB681901BB6803F00F027B681B680A43B9
:1010E0009A6000BF2037BD46B0BD00BF0038024047
:1010F000000020400000304080B582B000AF786032
:101100000B46FB7000BF8021786800F043F803466F
:10111000002BF8D0FA787B685A6000BF40217868CD
:1011200000F038F80346002BF8D000BF00BF0837A6
:10113000BD4680BD80B582B000AF7860396007E001
:101140003B685A1C3A601B7819467868FFF7D4FF51
:101150003B681B78002BF3D100BF00BF0837BD46AA
:1011600080BD000080B586B000AF7860396007F1BF
:101170000C033A680649184601F016FB07F10C0308
:1011800019467868FFF7D6FF00BF1837BD4680BD07
:10119000A42F000880B483B000AF786039607B680A
:1011A0001A683B681340002B01D0012300E00023A4
:1011B00018460C37BD465DF8047B704780B582B099
:1011C00000AF00F023FA00F01BF800F083F9094BA0
:1011D000094A1A60074B4FF416529A600548FFF708
:1011E000F9FE064B7B6079680348FFF7BBFF00BF41
:1011F000FDE700BF8C000020004400404F3F2F1F40
:1012000080B594B000AF07F12003302200211846CA
:1012100001F006FB07F10C0300221A605A609A6085
:10122000DA601A610023BB60284B1B6C274A43F02D
:1012300080531364254B1B6C03F08053BB60BB6869
:1012400000237B60224B1B6823F44043204A43F475
:10125000004313601E4B1B6803F440437B607B68B4
:1012600002233B620123FB6210233B630023BB6329
:1012700007F12003184600F021FB0346002B14BFA2
:1012800001230023DBB2002B01D000F023F80F2351
:10129000FB6000233B6100237B610023BB610023D3
:1012A000FB6107F10C030021184600F07FFD0346A7
:1012B000002B14BF01230023DBB2002B01D000F070
:1012C00009F800BF5037BD4680BD00BF003802405E
:1012D0000070004080B400AF72B600BF00BFFDE7F1
:1012E00080B400AF00231846BD465DF8047B70470C
:1012F00080B584B000AF224B9B689B08DBB203F043
:1013000003037B727B7A002B02D11E4BFB600BE048
:101310007B7A012B02D11C4BFB6005E07B7A022B10
:1013200002D1FFF7DDFFF860154B9B681B093B728C
:101330003B7A072B02D80123FB7205E03B7A083B7E
:10134000124A32F81330FB720D4B9B689B0A3B72BA
:101350003B7A032B02D80123BB7204E03B7A043BA7
:101360000B4AD35CBB72FB7AFA68B2FBF3F2BB7A2E
:10137000B2FBF3F37B607B6818461037BD4680BD37
:10138000003802400024F40000127A00000000201F
:101390001000002080B483B000AF00237B60104BAE
:1013A0005B6C0F4A43F4804353640D4B5B6C03F456
:1013B00080437B607B6800233B60094B1B6C084AC1
:1013C00043F080531364064B1B6C03F080533B6067
:1013D0003B6800BF0C37BD465DF8047B704700BF1B
:1013E0000038024080B400AF00BFFDE780B400AF1A
:1013F00000BFFDE780B400AF00BFFDE780B400AFE1
:1014000000BFFDE780B400AF00BFFDE780B400AFD0
:1014100000BFBD465DF8047B704780B400AF00BFDD
:10142000BD465DF8047B704780B400AF00BFBD4689
:101430005DF8047B704780B500AF00F039F900BF5C
:1014400080BD000080B586B000AF7860144A154BAF
:10145000D31A7B617B693B61134B1B68002B02D164
:10146000114B124A1A60104B1A687B6813443A6990
:101470009A4207D201F0ECF903460C221A604FF0B1
:10148000FF3309E0084B1B68FB60074B1A687B6859
:101490001344054A1360FB6818461837BD4680BDE3
:1014A00000800120000400009C0000203802002081
:1014B00080B400AF064BD3F88830054A43F470037C
:1014C000C2F8883000BFBD465DF8047B704700BF9E
:1014D00000ED00E080B586B000AF07F10803002200
:1014E0001A605A609A60DA603B4600221A605A60BD
:1014F0001E4B1F4A1A601D4B00225A601B4B0022D4
:101500009A601A4B4FF6FF72DA60184B00221A618C
:10151000164B00225A61154B00229A61134800F0C5
:10152000F1FD0346002B01D0FFF7D4FE4FF48053AA
:10153000BB6007F1080319460C4800F032FE034671
:10154000002B01D0FFF7C6FE00233B6000237B6029
:101550003B461946054801F00BF80346002B01D025
:10156000FFF7B8FE00BF1837BD4680BDA0000020C1
:101570000000014080B485B000AF78607B681B68D4
:101580000B4A93420DD10023FB600A4B5B6C094A66
:1015900043F001035364074B5B6C03F00103FB60F2
:1015A000FB6800BF1437BD465DF8047B704700BF81
:1015B0000000014000380240DFF834D0FFF778FF28
:1015C0000C480D490D4A002302E0D458C45004339E
:1015D000C4188C42F9D30A4A0A4C002301E0136074
:1015E0000432A242FBD301F039F9FFF7E7FD70475F
:1015F0000080012000000020700000200030000862
:101600007000002034020020FEE7000080B500AF2B
:101610000E4B1B680D4A43F4007313600B4B1B68A1
:101620000A4A43F480631360084B1B68074A43F47B
:1016300080731360032000F00DF90F2000F008F80C
:10164000FFF7A8FE0023184680BD00BF003C024003
:1016500080B582B000AF7860124B1A68124B1B78CD
:1016600019464FF47A73B3FBF1F3B2FBF3F3184668
:1016700000F017F90346002B01D001230EE07B6830
:101680000F2B0AD8002279684FF0FF3000F0EDF8F8
:10169000064A7B681360002300E0012318460837E0
:1016A000BD4680BD140000201C0000201800002052
:1016B00080B400AF064B1B781A46064B1B681344D8
:1016C000044A136000BFBD465DF8047B704700BF4D
:1016D0001C000020E800002080B400AF034B1B6812
:1016E0001846BD465DF8047B704700BFE800002047
:1016F00080B485B000AF78607B6803F00703FB60BF
:101700000C4BDB68BB60BA684FF6FF031340BB604D
:10171000FB681A02BB68134343F0BF6343F4003312
:10172000BB60044ABB68D36000BF1437BD465DF898
:10173000047B704700ED00E080B400AF044BDB6831
:101740001B0A03F007031846BD465DF8047B70478B
:1017500000ED00E080B483B000AF03463960FB7158
:1017600097F90730002B0ADB3B68DAB20C4997F98E
:1017700007301201D2B20B4483F800230AE03B6821
:10178000DAB20849FB7903F00F03043B1201D2B22D
:101790000B441A7600BF0C37BD465DF8047B7047DA
:1017A00000E100E000ED00E080B489B000AFF86037
:1017B000B9607A60FB6803F00703FB61FB69C3F162
:1017C0000703042B28BF0423BB61FB690433062BEA
:1017D00002D9FB69033B00E000237B614FF0FF323D
:1017E000BB6902FA03F3DA43BB681A407B699A408B
:1017F0004FF0FF317B6901FA03F3D9437B680B405B
:10180000134318462437BD465DF8047B704700003B
:1018100080B582B000AF78607B68013BB3F1807F18
:1018200001D301230FE00A4A7B68013B53600F217B
:101830004FF0FF30FFF78EFF054B00229A60044BFC
:1018400007221A60002318460837BD4680BD00BF36
:1018500010E000E080B582B000AF78607868FFF7F4
:1018600047FF00BF0837BD4680BD80B586B000AFDA
:101870000346B9607A60FB7300237B61FFF75CFF6E
:1018800078617A68B9687869FFF78EFF024697F940
:101890000F3011461846FFF75DFF00BF1837BD46F1
:1018A00080BD80B582B000AF78607868FFF7B0FF88
:1018B000034618460837BD4680BD000080B586B097
:1018C00000AF78607B68002B01D1012367E27B6861
:1018D0001B6803F00103002B75D0884B9B6803F055
:1018E0000C03042B0CD0854B9B6803F00C03082BD6
:1018F00012D1824B5B6803F48003B3F5800F0BD1E8
:101900007E4B1B6803F40033002B5BD07B685B6865
:10191000002B57D1012342E27B685B68B3F5803F1F
:1019200006D1764B1B68754A43F4803313601DE083
:101930007B685B68B3F5A02F0CD1704B1B686F4AB6
:1019400043F4802313606D4B1B686C4A43F480336F
:1019500013600BE0694B1B68684A23F48033136003
:10196000664B1B68654A23F4802313607B685B68C1
:10197000002B13D0FFF7B0FE386108E0FFF7ACFE94
:1019800002463B69D31A642B01D9032307E25B4B60
:101990001B6803F40033002BF0D014E0FFF79CFE2B
:1019A000386108E0FFF798FE02463B69D31A642BC2
:1019B00001D90323F3E1514B1B6803F40033002BDF
:1019C000F0D100E000BF7B681B6803F00203002B2E
:1019D00063D04A4B9B6803F00C03002B0BD0474BA2
:1019E0009B6803F00C03082B1CD1444B5B6803F489
:1019F0008003002B16D1414B1B6803F00203002B20
:101A000005D07B68DB68012B01D00123C7E13B4B8C
:101A10001B6823F0F8027B681B69DB00374913431E
:101A20000B603AE07B68DB68002B20D0344B01224E
:101A30001A60FFF751FE386108E0FFF74DFE0246DD
:101A40003B69D31A022B01D90323A8E12B4B1B6856
:101A500003F00203002BF0D0284B1B6823F0F802A0
:101A60007B681B69DB00254913430B6015E0244BA1
:101A700000221A60FFF730FE386108E0FFF72CFE05
:101A800002463B69D31A022B01D9032387E11B4B82
:101A90001B6803F00203002BF0D17B681B6803F086
:101AA0000803002B36D07B685B69002B16D0154BE2
:101AB00001221A60FFF710FE386108E0FFF70CFE04
:101AC00002463B69D31A022B01D9032367E10B4B72
:101AD0005B6F03F00203002BF0D01BE0094B0022E8
:101AE0001A60FFF7F9FD38610EE0FFF7F5FD0246D9
:101AF0003B69D31A022B07D9032350E10038024077
:101B000000004742800E4742884B5B6F03F00203A0
:101B1000002BEAD17B681B6803F00403002B00F064
:101B200097800023FB75814B1B6C03F08053002BC7
:101B30000FD10023BB607D4B1B6C7C4A43F080536C
:101B400013647A4B1B6C03F08053BB60BB680123AA
:101B5000FB75774B1B6803F48073002B18D1744B13
:101B60001B68734A43F480731360FFF7B5FD386157
:101B700008E0FFF7B1FD02463B69D31A022B01D9F9
:101B800003230CE16A4B1B6803F48073002BF0D035
:101B90007B689B68012B06D1644B1B6F634A43F043
:101BA000010313671CE07B689B68052B0CD15F4B1E
:101BB0001B6F5E4A43F0040313675C4B1B6F5B4A69
:101BC00043F0010313670BE0584B1B6F574A23F098
:101BD00001031367554B1B6F544A23F0040313672B
:101BE0007B689B68002B15D0FFF776FD38610AE013
:101BF000FFF772FD02463B69D31A41F288329342E5
:101C000001D90323CBE0494B1B6F03F00203002BE8
:101C1000EED014E0FFF760FD38610AE0FFF75CFDED
:101C200002463B69D31A41F28832934201D9032319
:101C3000B5E03E4B1B6F03F00203002BEED1FB7DA2
:101C4000012B05D1394B1B6C384A23F080531364A8
:101C50007B689B69002B00F0A180344B9B6803F0EC
:101C60000C03082B5CD07B689B69022B41D1314B64
:101C700000221A60FFF730FD386108E0FFF72CFD05
:101C800002463B69D31A022B01D9032387E0274B75
:101C90001B6803F00073002BF0D17B68DA697B6866
:101CA0001B6A1A437B685B6A9B011A437B689B6AC9
:101CB0005B08013B1B041A437B68DB6A1B061B495C
:101CC00013434B601B4B01221A60FFF705FD38617F
:101CD00008E0FFF701FD02463B69D31A022B01D948
:101CE00003235CE0114B1B6803F00073002BF0D062
:101CF00054E0104B00221A60FFF7EEFC386108E058
:101D0000FFF7EAFC02463B69D31A022B01D90323F1
:101D100045E0064B1B6803F00073002BF0D13DE05B
:101D20007B689B69012B07D1012338E00038024012
:101D300000700040600047421B4B5B68FB607B68A3
:101D40009B69012B28D0FB6803F480027B68DB6968
:101D50009A4221D1FB6803F03F027B681B6A9A42DA
:101D60001AD1FA6847F6C07313407A68526A920132
:101D7000934211D1FB6803F440327B689B6A5B0895
:101D8000013B1B049A4207D1FB6803F070627B6839
:101D9000DB6A1B069A4201D0012300E000231846AB
:101DA0001837BD4680BD00BF0038024080B584B002
:101DB00000AF786039607B68002B01D10123CCE053
:101DC000684B1B6803F007033A689A420CD9654BCD
:101DD0003A68D2B21A70634B1B6803F007033A6883
:101DE0009A4201D00123B8E07B681B6803F002032C
:101DF000002B20D07B681B6803F00403002B05D068
:101E0000594B9B68584A43F4E05393607B681B68C6
:101E100003F00803002B05D0534B9B68524A43F450
:101E200060439360504B9B6823F0F0027B689B6893
:101E30004D4913438B607B681B6803F00103002B43
:101E400044D07B685B68012B07D1474B1B6803F4C8
:101E50000033002B19D101237FE07B685B68022BE4
:101E600003D07B685B68032B07D13F4B1B6803F0F3
:101E70000073002B09D101236FE03B4B1B6803F07B
:101E80000203002B01D1012367E0374B9B6823F04D
:101E900003027B685B68344913438B60FFF71CFCCB
:101EA000F8600AE0FFF718FC0246FB68D31A41F21B
:101EB0008832934201D903234FE02B4B9B6803F0F8
:101EC0000C027B685B689B009A42EBD1254B1B6838
:101ED00003F007033A689A420CD2224B3A68D2B216
:101EE0001A70204B1B6803F007033A689A4201D02E
:101EF000012332E07B681B6803F00403002B08D049
:101F0000194B9B6823F4E0527B68DB681649134346
:101F10008B607B681B6803F00803002B09D0124B11
:101F20009B6823F460427B681B69DB000E49134306
:101F30008B6000F021F802460B4B9B681B0903F0F5
:101F40000F030A49CB5C22FA03F3094A1360094BD9
:101F50001B681846FFF77CFB002318461037BD4668
:101F600080BD00BF003C024000380240AC2F00089A
:101F700014000020180000202DE9B04F90B000AFF1
:101F800000237B630023FB6300233B630023BB63CD
:101F9000594B9B6803F00C03082B0DD0082B00F263
:101FA000A180002B02D0042B03D09BE0534BBB63DA
:101FB0009BE0534BBB6398E04F4B5B6803F03F03E0
:101FC0007B634D4B5B6803F48003002B28D04A4BA6
:101FD0005B689B0900223B627A623B6AC3F308009C
:101FE0000021474B03FB01F2002300FB03F31344E2
:101FF000434AA0FB0212FA620A46BA62FA6A134422
:10200000FB627B6B0022BB61FA61D7E90623D7E94B
:102010000A01FEF723FD02460B461346FB6353E01D
:10202000354B5B689B0900223B617A613B69C3F3D6
:10203000080A4FF0000B52465B464FF000004FF08D
:102040000001590141EAD261500102460B46B2EB50
:102050000A0863EB0B094FF000024FF000034FEA50
:10206000891343EA98634FEA8812B2EB080463EBE2
:1020700009054FF000024FF00003EB0043EA5473F0
:10208000E20014461D4614EB0A033B6045EB0B03CC
:102090007B604FF000024FF00003D7E9004529466E
:1020A0008B02214643EA915321468A021046194683
:1020B0007B6B0022BB60FA60D7E90223FEF7CEFCFF
:1020C00002460B461346FB630B4B5B681B0C03F08D
:1020D000030301335B003B63FA6B3B6BB2FBF3F32F
:1020E000BB6302E0054BBB6300BFBB6B18464037C8
:1020F000BD46BDE8B08F00BF003802400024F400A8
:1021000040787D0180B582B000AF78607B68002B9D
:1021100001D1012341E07B6893F83D30DBB2002B15
:1021200006D17B68002283F83C207868FFF722FA0A
:102130007B68022283F83D207B681A687B68043341
:102140001946104600F0F4F87B68012283F8462017
:102150007B68012283F83E207B68012283F83F20C0
:102160007B68012283F840207B68012283F84120AC
:102170007B68012283F842207B68012283F8432098
:102180007B68012283F844207B68012283F8452084
:102190007B68012283F83D20002318460837BD469E
:1021A00080BD80B584B000AF786039600023FB73D8
:1021B0007B6893F83C30012B01D10223B4E07B68AB
:1021C000012283F83C207B68022283F83D207B6853
:1021D0001B689B68BB60BB6823F07703BB60BB6870
:1021E00023F47F43BB607B681B68BA689A603B68D6
:1021F0001B68B3F5005F3ED0B3F5005F00F2878047
:10220000B3F5805F00F08680B3F5805F7FD8702BD8
:102210001AD0702B7BD8602B50D0602B77D8502BE6
:102220003CD0502B73D8402B58D0402B6FD8302B3C
:1022300064D0302B6BD8202B60D0202B67D8002B9C
:102240005CD0102B5AD062E07B6818683B689968B4
:102250003B685A683B68DB6800F06AF97B681B687A
:102260009B68BB60BB6843F07703BB607B681B68FF
:10227000BA689A604FE07B6818683B6899683B6869
:102280005A683B68DB6800F053F97B681B689A6802
:102290007B681B6842F480429A603CE07B68186867
:1022A0003B6859683B68DB681A4600F0C7F87B68F2
:1022B0001B685021184600F020F92CE07B68186854
:1022C0003B6859683B68DB681A4600F0E6F87B68B3
:1022D0001B686021184600F010F91CE07B68186844
:1022E0003B6859683B68DB681A4600F0A7F87B68D2
:1022F0001B684021184600F000F90CE07B681A6862
:102300003B681B681946104600F0F7F803E001230C
:10231000FB7300E000BF7B68012283F83D207B68EF
:10232000002283F83C20FB7B18461037BD4680BD59
:1023300080B485B000AF786039607B681B68FB6053
:102340007B68374A93420FD07B68B3F1804F0BD044
:102350007B68344A934207D07B68334A934203D068
:102360007B68324A934208D1FB6823F07003FB601C
:102370003B685B68FA681343FB607B68284A9342BA
:102380001BD07B68B3F1804F17D07B68254A9342FE
:1023900013D07B68244A93420FD07B68234A934230
:1023A0000BD07B68224A934207D07B68214A934234
:1023B00003D07B68204A934208D1FB6823F4407322
:1023C000FB603B68DB68FA681343FB60FB6823F043
:1023D00080023B685B691343FB603B689A687B68DB
:1023E000DA623B681A687B689A627B680C4A93429F
:1023F00003D13B681A697B681A637B681B6843F0EA
:1024000004027B681A607B6801225A617B68FA6863
:102410001A6000BF1437BD465DF8047B704700BFEB
:10242000000001400004004000080040000C004093
:1024300000400140004401400048014080B487B0A2
:1024400000AFF860B9607A60FB681B6A7B61FB686B
:102450001B6A23F00102FB681A62FB689B693B61FF
:102460003B6923F0F0033B617B681B013A6913432E
:102470003B617B6923F00A037B617A69BB68134384
:102480007B61FB683A699A61FB687A691A6200BFEE
:102490001C37BD465DF8047B704780B487B000AF41
:1024A000F860B9607A60FB681B6A7B61FB681B6A35
:1024B00023F01002FB681A62FB689B693B613B6971
:1024C00023F470433B617B681B033A6913433B6110
:1024D0007B6923F0A0037B61BB681B017A6913430E
:1024E0007B61FB683A699A61FB687A691A6200BF8E
:1024F0001C37BD465DF8047B704780B485B000AFE3
:10250000786039607B689B68FB60FB6823F0700330
:10251000FB603A68FB68134343F00703FB607B688A
:10252000FA689A6000BF1437BD465DF8047B7047B7
:1025300080B487B000AFF860B9607A603B60FB6838
:102540009B687B617B6923F47F437B613B681A0254
:102550007B681A43BB6813437A6913437B61FB684A
:102560007A699A6000BF1C37BD465DF8047B7047EE
:1025700080B485B000AF786039607B6893F83C30F8
:10258000012B01D1022350E07B68012283F83C201B
:102590007B68022283F83D207B681B685B68FB60D8
:1025A0007B681B689B68BB60FB6823F07003FB6063
:1025B0003B681B68FA681343FB607B681B68FA681A
:1025C0005A607B681B681C4A934218D07B681B6862
:1025D000B3F1804F13D07B681B68184A93420ED02A
:1025E0007B681B68164A934209D07B681B68154AB2
:1025F000934204D07B681B68134A93420CD1BB689A
:1026000023F08003BB603B685B68BA681343BB6020
:102610007B681B68BA689A607B68012283F83D205A
:102620007B68002283F83C20002318461437BD46FF
:102630005DF8047B704700BF0000014000040040CB
:1026400000080040000C00400040014070B50F4EF3
:102650000C463168054611B900F0EAF830602146B1
:10266000284600F0E5F8431C03D14FF0FF34204624
:1026700070BDC41C24F00304A042F8D0211A2846DF
:1026800000F0D6F80130F2D1EFE700BFEC000020F7
:102690002DE9F843CD1C25F0030508350C2D38BF76
:1026A0000C25002D064601DBA94204D90C2333601A
:1026B0000020BDE8F883DFF8D48000F069F8D8F88E
:1026C00000301C4644BB29463046FFF7BFFF431C81
:1026D000044658D1D8F800402746002F43D1002C9B
:1026E0004BD023683946304604EB030900F0A0F8CC
:1026F000814542D121686D1A29463046FFF7A6FF71
:1027000001303AD023682B442360D8F800305A684F
:1027100062BBC8F800700FE02268521B20D40B2A5D
:1027200017D96119A342256018BF5960636808BFB3
:10273000C8F8001062514B60304600F02FF804F1E9
:102740000B00231D20F00700C21A1CBF1B1AA35048
:10275000AFE76268A3420CBFC8F800205A60EBE7FD
:1027600023466468AEE73C467F68B6E71A465B6876
:10277000A342FBD100235360DEE70C2333603046D5
:1027800000F00CF894E70560D6E700BFF0000020E9
:10279000014800F087B800BF30020020014800F077
:1027A00082B800BF300200200EB410B59DB01FAB40
:1027B000029006906FF000410A48079104910A497F
:1027C00053F8042B0591002402A9006801931B947F
:1027D00000F01EF9029B1C701DB0BDE8104003B054
:1027E000704700BF200000200802FFFF884210B59C
:1027F00001EB020402D98442234607D8431EA142BA
:1028000008D011F8012B03F8012FF8E70244014624
:102810008A4200D110BD13F8014D02F8014DF7E7CF
:1028200002440346934200D1704703F8011BF9E7C5
:1028300038B5064D0023044608462B60FEF702FE1D
:10284000431C02D12B6803B1236038BD2C02002049
:10285000014B1868704700BF2000002070B50D4D77
:102860000D4C641BA4100026A64209D10B4D0C4C44
:1028700000F08CFB641BA4100026A64205D170BD9D
:1028800055F8043B98470136EEE755F8043B984766
:102890000136F2E7F82F0008F82F0008F82F00089B
:1028A000FC2F0008704770470A44914200F1FF3343
:1028B00000D1704710B511F8014B03F8014F914258
:1028C000F9D110BD38B50546002941D051F8043C76
:1028D0000C1F002BB8BFE418FFF75AFF1D4A1368FE
:1028E00033B9636014602846BDE83840FFF756BF2F
:1028F000A34208D9206821188B4201BF19685B6880
:1029000009182160EDE71A465B680BB1A342FAD9BA
:1029100011685018A0420BD120680144501883421E
:102920001160E0D118685B68536008441060DAE712
:1029300002D90C232B60D6E7206821188B4204BFF4
:1029400019685B68636004BF091821605460CAE7B6
:1029500038BD00BFF00000202DE9F0478E681F460B
:10296000BE420B6882460C4690462DD8B1F90C2029
:1029700012F4906F26D06569096905EB4505A3EB54
:10298000010905EBD5757B1C4B446D109D4238BF8A
:102990001D46530527D52946FFF77AFE064660B344
:1029A00021694A46FFF780FFA38923F4906343F02F
:1029B0008003A381266165614E44A5EB090526606D
:1029C000A5603E46BE4200D93E462068324641469A
:1029D000FFF70CFFA3689B1BA360236833442360AD
:1029E0000020BDE8F0872A4600F09AFA0646002843
:1029F000E0D121695046FFF765FF0C23CAF800308B
:102A0000A38943F04003A3814FF0FF30E9E70000C2
:102A10002DE9F04F98468B891B069DB007460D4661
:102A2000144610D50B6973B94021FFF731FE2860B9
:102A3000286130B90C233B604FF0FF301DB0BDE87A
:102A4000F08F40236B610023099320238DF82930F8
:102A5000CDF80C803023DFF89C818DF82A304FF0C0
:102A6000010923469A4613F8012B0AB1252AF9D108
:102A7000BAEB040B0BD05B46224629463846FFF7DB
:102A80006BFF013000F0A780099A5A4409929AF826
:102A90000030002B00F09F8000234FF0FF32CDE983
:102AA00005230AF1010A049307938DF853301A9312
:102AB0005446052214F8011B4E48FDF791FB049A79
:102AC000D8B9D00644BF20238DF85330110744BF36
:102AD0002B238DF853309AF800302A2B15D0079A03
:102AE000544600204FF00A0C214611F8013B303BC0
:102AF000092B4BD9B0B1079214E0A0EB080309FAF7
:102B000003F313430493A246D2E7039B191D1B68EA
:102B10000391002BBBBF5B4242F002020793079375
:102B2000B8BF049223782E2B0AD163782A2B32D196
:102B3000039B1A1D1B68039243EAE3730234059357
:102B4000DFF8C0A0217803225046FDF749FB38B1D9
:102B5000049BA0EB0A0040228240134301340493FB
:102B600014F8011B24488DF828100622FDF738FBC5
:102B7000002836D0214B1BBB039B073323F00703F0
:102B800008330393099B334409936AE70CFB023231
:102B90000C460120A8E700230134059319464FF0A5
:102BA0000A0C204610F8012B303A092A03D9002BD1
:102BB000C6D00591C4E70CFB012104460123F0E7D0
:102BC00003AB00932A460E4B04A93846AFF30080AE
:102BD000421C0646D6D1AB895B063FF52DAF09985E
:102BE0002CE703AB00932A46054B04A9384600F0B6
:102BF00079F8EDE7BC2F0008C62F000800000000A0
:102C000059290008C22F00082DE9F04716469846BA
:102C10008A680B69DDF820909342B8BF1346336091
:102C200091F8432007460C460AB10133336023680C
:102C3000990642BF336802333360256815F00605F4
:102C400006D104F1190AE36832689B1AAB4226DC0C
:102C500094F843302268003B18BF012392062BD41E
:102C600004F1430241463846C84701301ED023686C
:102C7000226903F00603042B02BFE5683368ED1AEE
:102C8000A3680CBF25EAE57500259342C4BF9B1AD3
:102C9000ED1800261A34B5421AD1002008E00123AD
:102CA000524641463846C847013003D14FF0FF3005
:102CB000BDE8F0870135C6E7E1185A1C302081F8DD
:102CC0004300224494F8451082F843100233C7E7CA
:102CD0000123224641463846C8470130E6D0013636
:102CE000D9E700002DE9FF470F7E0C9E782F914613
:102CF00080460C469A4601F1430207D8622F0AD853
:102D0000002F00F0D180582F00F0B88004F1420667
:102D100084F842703AE0A7F16303152BF6D801A1BD
:102D200051F823F07D2D0008912D00080D2D00088D
:102D30000D2D00080D2D00080D2D0008912D000807
:102D40000D2D00080D2D00080D2D00080D2D00087B
:102D50008F2E0008BB2D0008492E00080D2D0008FD
:102D60000D2D0008B12E00080D2D0008BB2D000808
:102D70000D2D00080D2D0008512E000833681A1D76
:102D80001B68326004F1420684F8423001239CE063
:102D900033682068191D3160060601D51D6803E0FF
:102DA0004506FBD5B3F90050002D03DA2D236D4203
:102DB00084F8433058480A2311E021683368080634
:102DC00053F8045B02D4490648BFADB26F2F524896
:102DD000336014BF0A230823002184F84310666877
:102DE000A660002E05DB21682E4321F0040121603E
:102DF0004BD01646B5FBF3F103FB1157C75D06F840
:102E0000017D2F46BB420D46F4D9082B0BD1236818
:102E1000DF0708D5236961689942DEBF302306F8D1
:102E2000013C06F1FF36921B2261CDF800A04B4613
:102E300003AA21464046FFF7E7FE01304AD14FF092
:102E4000FF3004B0BDE8F087236843F0200323601F
:102E50003248782784F84570236831681F0651F896
:102E6000045B02D45F0648BFADB23160D90744BFEE
:102E700043F0200323601DB11023ADE72648E9E7A6
:102E8000236823F020032360F6E71646BDE7336886
:102E900025686169181D30602E061B6801D5196010
:102EA00002E06806FBD51980002323611646BCE7C3
:102EB00033681A1D32601E68626800213046FDF7D3
:102EC0008FF908B1801B606063682361002384F878
:102ED0004330AAE72369324649464046D04701308D
:102EE000ADD023689B0713D4E068039B9842B8BF1A
:102EF0001846A6E70123324649464046D0470130EE
:102F00009DD00135E36803995B1AAB42F2DCEBE735
:102F1000002504F11906F5E7CD2F0008DE2F000883
:102F20002DE9F041074614460D4621B9BDE8F041B0
:102F30001146FFF7ADBB2AB9FFF7C4FC254628466A
:102F4000BDE8F08100F01AF88442064602D8B4EBDE
:102F5000500FF4D821463846FFF79AFB804608B94F
:102F60004546ECE7B4422246294628BF3246FFF7E1
:102F70009BFC29463846FFF7A5FCF1E751F8043CD5
:102F8000181F002BBCBF0B58C0187047F8B500BF06
:102F9000F8BC08BC9E467047F8B500BFF8BC08BC3A
:042FA0009E46704792
:102FA40030782578000000000000000000000000D8
:102FB4000102030406070809232D302B2000686C46
:102FC4004C00656667454647003031323334353648
:102FD4003738394142434445460030313233343581
:0C2FE400363738396162636465660000AE
:082FF000F0D1FF7F0100000099
:042FF800C501000807
:042FFC00A101000827
:1030000002000400080010004000800000010002DF
:10301000020408100024F400100000000100000069
:103020002400002000000000F40000205C010020CB
:10303000C4010020000000000000000000000000AB
:103040000000000000000000000000000000000080
:103050000000000000000000000000000000000070
:103060000000000000000000000000000000000060
:04000005080015B921
:00000001FF
