:020000040800F2
:10000000008001203D230008252100082D21000843
:10001000352100083D2100084521000800000000AE
:100020000000000000000000000000004D2100085A
:100030005B2100080000000069210008772100080A
:100040008D2300088D2300088D2300088D230008D0
:100050008D2300088D2300088D2300088D230008C0
:100060008D2300088D2300088D2300088D230008B0
:100070008D2300088D2300088D2300088D230008A0
:100080008D2300088D2300088D2300080000000048
:100090000000000000000000000000008D230008A8
:1000A0008D2300088D2300088D2300088D23000870
:1000B0008D2300088D2300088D2300088D23000860
:1000C0008D2300088D2300088D2300088D23000850
:1000D0008D2300088D2300088D23000800000000F8
:1000E0008D2300088D2300088D23000800000000E8
:1000F0000000000000000000000000008D23000848
:10010000000000008D2300088D2300088D230008C7
:1001100000000000000000000000000000000000DF
:100120008D2300088D2300088D2300088D230008EF
:100130008D23000800000000000000000000000007
:100140000000000000000000000000008D230008F7
:100150008D2300088D2300088D2300088D230008BF
:100160008D2300088D23000800000000000000001F
:10017000000000000000000000000000000000007F
:10018000000000008D2300080000000000000000B7
:040190008D230008B3
:1001940010B5054C237833B9044B13B10448AFF3BD
:1001A40000800123237010BD7000002000000000B7
:1001B4002039000808B5034B1BB103490348AFF3CA
:1001C400008008BD000000007400002020390008F1
:1001D400034613F8012B002AFBD1181A0138704783
:1001E40053B94AB9002908BF00281CBF4FF0FF319A
:1001F4004FF0FF3000F088B9ADF1080C6DE904CE82
:1002040000F006F8DDF804E0DDE9022304B07047ED
:100214002DE9F047089D8E4604468846002B4AD1B6
:100224008A42174662D9B2FA82F64EB1C6F1200369
:1002340001FA06F820FA03F3B74043EA0808B44089
:100244004FEA174E1FFA87FCB8FBFEF1230C0EFB96
:10025400118843EA084301FB0CF29A4209D9FB18BE
:1002640001F1FF3080F0EA809A4240F2E7800239DF
:100274003B449A1AA3B2B2FBFEF00EFB102243EAEF
:10028400024300FB0CFC9C4509D9FB1800F1FF322A
:1002940080F0D6809C4540F2D3803B44023840EA4B
:1002A4000140A3EB0C0300211DB1F3400022C5E97A
:1002B4000032BDE8F0878B4205D90DB1C5E90001D4
:1002C40000210846F5E7B3FA83F1002946D17345C6
:1002D40002D3824200F20581841A6EEB03020120EC
:1002E4009046002DE5D0C5E90048E2E7002A00F079
:1002F4009080B2FA82F6002E40F0A4808A1A030C91
:100304004FEA174E80B2BCB20121B2FBFEFC0EFBD9
:100314001C2243EA024304FB0CF29A4207D9FB185D
:100324000CF1FF3802D29A4200F2E080C4469B1AD4
:10033400B3FBFEF20EFB123340EA034302FB04F468
:100344009C4207D9FB1802F1FF3002D29C4200F212
:10035400CA8002461B1B42EA0C40A5E7C1F12006F5
:100364008B4022FA06F71F430EFA01F420FA06F333
:100374002EFA06FE4FEA1749234300FA01F81FFA42
:1003840087FCBEFBF9F01C0C09FB10EE44EA0E449A
:1003940000FB0CFEA64502FA01F209D93C1900F152
:1003A400FF3A80F09C80A64540F2998002383C4494
:1003B400A4EB0E041FFA83FEB4FBF9F309FB134408
:1003C4004EEA044403FB0CFCA44508D93C1903F190
:1003D400FF3E80F08280A4457FD9023B3C4443EA3F
:1003E4000040A4EB0C04A0FB02EC64457346E14618
:1003F40062D35FD05DB1B8EB030264EB090404FA85
:1004040006F622FA01F31E43CC40C5E9006400213C
:100414004FE7B1FBF2FC010C41EA0E4180B240EA25
:1004240001423B4638463C46B846BE462026B1FB10
:10043400F7F1A2EB080241EA0C4166E7014618E72E
:1004440010462CE7C6F120022EFA02F3B740B14061
:1004540020FA02F24FEA174E0A43B3FBFEF8BCB28D
:100464000EFB1833110C41EA034108FB04F9B040B8
:1004740089454FEA104380B23ED9791808F1FF3C10
:1004840001D289451FD8A1EB0901B1FBFEF909FB93
:1004940004F80EFB191192B242EA0142424529D2F4
:1004A400BA1809F1FF31C4D24245C2D2A9F10201FE
:1004B4003A44BEE7F0459DD2BEEB02036CEB070C59
:1004C4000138E14696E7A7EB09094944A8F1020C73
:1004D400B1FBFEF909FB04F8DBE773467FE75046FE
:1004E40066E70846FDE63B44023A33E7ACF1020C0A
:1004F4003B441CE749469CE7A1EB0901C446B1FB18
:10050400FEF909FB04F8C4E7704700BF80B58AB060
:1005140000AF0346FB71FB79012B02D13F4B7B6299
:1005240010E0FB79032B02D13D4B7B620AE0FB799F
:10053400052B02D13B4B7B6204E0FB79072B01D1F5
:10054400394B7B627B6A58687B6A1B7A01221946A5
:1005540000F0D5FB00233B6224E0344BDB68334AD4
:1005640043F08073D360324B1B68314A43F001037C
:1005740013602F4B5B683B6101F088FD03462D4AF5
:10058400A2FB03239B0C4FF47A7202FB03F3FB6080
:10059400274B5A683B69D31AFA689A42F8D83B6ADF
:1005A40001333B623B6A002BD7D07B6A58687B6A75
:1005B4001B7A0022194600F0A2FB0023FB6124E011
:1005C4001A4BDB68194A43F08073D360184B1B68DD
:1005D400174A43F001031360154B5B68BB6101F0DC
:1005E40055FD0346134AA2FB03239B0C4FF47A7276
:1005F40002FB03F37B610E4B5A68BB69D31A7A6919
:100604009A42F8D8FB690133FB61FB69002BD7D010
:1006140000BF00BF2837BD4680BD00BF8C0000204E
:10062400B4000020DC00002004010020F0ED00E014
:10063400001000E083DE1B4380B586B000AF0346A4
:10064400FB710B46BB7113467B71BB79012B02D145
:10065400394B7B6110E0BB79032B02D1374B7B61B3
:100664000AE0BB79052B02D1354B7B6104E0BB79F1
:10067400072B01D1334B7B617B79002B2AD10723D4
:100684003B611FE0FA793B6942FA03F303F001038B
:10069400002B08D07B6918697B691B7D01221946F0
:1006A40000F02DFB07E07B6918697B691B7D002244
:1006B400194600F024FBBB791846FFF727FF3B6976
:1006C400013B3B613B69002BDCDABB79184600F047
:1006D4003BF82CE07B79012B29D10023FB601FE040
:1006E400FA79FB6842FA03F303F00103002B08D004
:1006F4007B6918697B691B7D0122194600F0FFFAAA
:1007040007E07B6918697B691B7D0022194600F0AC
:10071400F6FABB791846FFF7F9FEFB680133FB6074
:10072400FB68072BDCDDBB79184600F00DF800BF31
:100734001837BD4680BD00BF8C000020B4000020E7
:10074400DC0000200401002080B58AB000AF03461D
:10075400FB71FB79012B02D1404B7B6210E0FB79EA
:10076400032B02D13E4B7B620AE0FB79052B02D1BD
:100774003C4B7B6204E0FB79072B01D13A4B7B6253
:100784007B6AD8697B6A93F820300122194600F00D
:10079400B6FA00233B6224E0344BDB68334A43F06F
:1007A4008073D360324B1B68314A43F001031360FA
:1007B4002F4B5B683B6101F069FC03462D4AA2FBA9
:1007C40003239B0C4FF47A7202FB03F3FB60284B68
:1007D4005A683B69D31AFA689A42F8D83B6A0133DB
:1007E4003B623B6A042BD7D97B6AD8697B6A93F84E
:1007F40020300022194600F082FA0023FB6124E035
:100804001A4BDB68194A43F08073D360184B1B689A
:10081400174A43F001031360154B5B68BB6101F099
:1008240035FC0346134AA2FB03239B0C4FF47A7254
:1008340002FB03F37B610E4B5A68BB69D31A7A69D6
:100844009A42F8D8FB690133FB61FB69042BD7D9C1
:1008540000BF00BF2837BD4680BD00BF8C0000200C
:10086400B4000020DC00002004010020F0ED00E0D2
:10087400001000E083DE1B43B0B584B000AFF86025
:10088400B96011461A460B46FB711346BB71304BD7
:100894001B6B2F4A43F010031363BB682D4A5A6045
:1008A400BB6800221A72BB6801225A72BB6800221C
:1008B4001A73BB6802229A72BB680122DA72BB689F
:1008C4000433184600F02BF9BB68224A1A61BB684E
:1008D400FA791A75BB6801225A75BB6800221A7628
:1008E400BB6802229A75BB680122DA75BB681033B3
:1008F400184600F014F9BB68164ADA61BB68BA7985
:1009040083F82020BB68012283F82120BB680022E1
:1009140083F82420BB68022283F82220BB680122CA
:1009240083F82320BB681C33184600F0F8F8FA68F3
:10093400BB6814461D460FCD0FC40FCD0FC495E8F8
:10094400030084E80300F8681037BD46B0BD00BF5B
:100954000038024000100240B0B58CB000AF03462E
:1009640087F82F3097F82F30012B12D12D4C3846B1
:1009740097F82F2002232B49FFF77EFF25463C469C
:100984000FCC0FC50FCC0FC594E8030085E8030016
:1009940043E097F82F30032B12D1234C384697F8B5
:1009A4002F2004232049FFF767FF25463C460FCC40
:1009B4000FC50FCC0FC594E8030085E803002CE0B5
:1009C40097F82F30052B12D1184C384697F82F2062
:1009D40006231649FFF750FF25463C460FCC0FC5AA
:1009E4000FCC0FC594E8030085E8030015E097F8E1
:1009F4002F30072B11D10D4C384697F82F200823A0
:100A04000B49FFF739FF25463C460FCC0FC50FCCE9
:100A14000FC594E8030085E8030000BF3037BD46E6
:100A2400B0BD00BF8C000020B4000020DC0000201A
:100A34000401002080B584B000AF786039602C498F
:100A4400386802F022FD0346002B0CBF012300236B
:100A5400DBB2002B09D07B6802221A707B6801226A
:100A64005A707B6807229A7024E02249386802F0A1
:100A74000CFD0346002B0CBF01230023DBB2002B2B
:100A840006D07B6803221A707B6803225A7011E037
:100A94001949386802F0F9FC0346002B0CBF012306
:100AA4000023DBB2002B05D07B6804221A707B681C
:100AB40005225A700023FB7309E0FB7B7A68134418
:100AC4005B781846FFF748FFFB7B0133FB73FB7B26
:100AD400042BF2D97B689B78072B03D100F042FCEE
:100AE40000F0D0FE7B6818461037BD4680BD00BFBD
:100AF40038390008443900085439000880B582B0F8
:100B040000AF78600B46FB707B685978FB78012254
:100B14001846FFF791FD00BF0837BD4680BD80B47D
:100B240085B000AF78600023FB607B685B79032BA2
:100B34001FD87B685B791A467B681B795B0002FAD5
:100B440003F3FB607B681B681A687B681B795B0096
:100B5400032101FA03F3DB4319467B681B680A404F
:100B64001A607B681B6819687B681B68FA680A430B
:100B74001A600023FB607B689B79032B1FD87B687A
:100B84009B791A467B681B795B0002FA03F3FB60CE
:100B94007B681B689A687B681B795B00032101FAF8
:100BA40003F3DB4319467B681B680A409A607B6841
:100BB4001B6899687B681B68FA680A439A6000237B
:100BC400FB607B68DB79032B1FD87B68DB791A46D3
:100BD4007B681B795B0002FA03F3FB607B681B688C
:100BE400DA687B681B795B00032101FA03F3DB43BA
:100BF40019467B681B680A40DA607B681B68D96801
:100C04007B681B68FA680A43DA600023FB607B6830
:100C14001B7A012B1DD87B681B7A1A467B681B79CB
:100C240002FA03F3FB607B681B685A687B681B79D4
:100C3400194601238B40DB4319467B681B680A4035
:100C44005A607B681B6859687B681B68FA680A43AA
:100C54005A600023FB607B685B7A0F2B21D87B688A
:100C64005B7A1A467B681B79083B9B0002FA03F304
:100C7400FB607B681B685A6A7B681B79083B9B0096
:100C8400042101FA03F3DB4319467B681B680A401D
:100C94005A627B681B68596A7B681B68FA680A4356
:100CA4005A620023FB607B689B7A0F2B1FD87B68FA
:100CB4009B7A1A467B681B799B0002FA03F3FB605C
:100CC4007B681B681A6A7B681B799B00042101FA04
:100CD40003F3DB4319467B681B680A401A627B688E
:100CE4001B68196A7B681B68FA680A431A62002346
:100CF400FB6000BF1437BD465DF8047B704780B4C9
:100D040083B000AF78600B46FB701346BB70BB78B2
:100D1400012B09D17B685B69FA78012101FA02F29F
:100D24001A437B685A6109E07B685B69FA780121A0
:100D340001FA02F2D2431A407B685A6100BF0C37B1
:100D4400BD465DF8047B704780B483B000AF786023
:100D54007B681B6843F480627B681A607B681B684D
:100D640043F480727B681A6000BF0C37BD465DF89F
:100D7400047B704780B485B000AF78607B685B69A2
:100D8400FB607B689B69FB6000BF1437BD465DF860
:100D9400047B704780B483B000AF78607B681B68C5
:100DA40043F400727B681A6000BF0C37BD465DF8DF
:100DB400047B704780B586B000AF174B1B6B164A97
:100DC40043F002031363154BFB6008233B740223B7
:100DD4007B7401233B750323BB740123FB7404233D
:100DE4007B7507F10C031846FFF799FE0B4B3B602C
:100DF40009233B7102237B7101233B720323BB71E3
:100E04000123FB7104237B723B461846FFF787FEE0
:100E140000BF1837BD4680BD0038024000040240C0
:100E240080B483B000AF78600B46FB70FB78002B76
:100E340020D07B68224A934206D1224B1B6C214A64
:100E440043F40013136435E07B681D4A934206D1D2
:100E54001C4B1B6C1B4A43F4800313642AE07B681D
:100E6400174A934226D1174B1B6C164A43F40003CE
:100E740013641FE07B68124A934206D1114B1B6C2A
:100E8400104A23F40013136414E07B680C4A934261
:100E940006D10C4B1B6C0B4A23F48003136409E04A
:100EA4007B68074A934205D1064B1B6C054A23F421
:100EB4000003136400BF0C37BD465DF8047B704724
:100EC400005400400038024080B584B000AF786020
:100ED4007B681B6801211846FFF7A2FFFFF76AFF32
:100EE4007B681B681A687B681B6842F400421A60BE
:100EF4007B681B681A687B681B6822F400421A60CE
:100F04000023FB6001F070F80346424AA2FB03236E
:100F14009B0CFA681343FB607B681B68FA6802F059
:100F24003F025A6000237B810023FB607B685B687F
:100F3400394A93420FD801F057F802467B685B6840
:100F44005B00B2FBF3F37B817B89C3F30B03FA6889
:100F54001343FB602CE0FB6843F40043FB607B68B5
:100F64005B899B03FA681343FB607B685B89002BF6
:100F74000BD101F039F801467B685A6813465B00CF
:100F84001344B1FBF3F37B810CE001F02DF801462F
:100F94007B685A6813469B0013449A001344B1FBC0
:100FA400F3F37B817B89C3F30B03FA681343FB6080
:100FB4007B681B68D9697B681B68FA680A43DA6135
:100FC40000233B810023FB607B685B68124A9342E9
:100FD40009D801F009F802467B685B68B2FBF3F3B9
:100FE4009BB201333B813B8903F07F03FA681343CF
:100FF400FB607B681B68FA681A627B681B681A6866
:101004007B681B6842F001021A6000BF1037BD46BE
:1010140080BD00BF83DE1B43A086010080B483B083
:1010240000AF786039607B685A693B681340002BD5
:1010340001D0012300E0002318460C37BD465DF8BB
:10104400047B704780B582B000AF78607868FFF7A2
:101054007BFE00BF01217868FFF7E0FF0346002B09
:10106400F8D000BF00BF0837BD4680BD80B586B04C
:1010740000AF78607B681B7A1A467B681B68520055
:101084001A617B68DB687B6136E000233B6124E006
:10109400224BDB68214A43F08073D360204B1B68EA
:1010A4001F4A43F0010313601D4B5B68FB6000F0B3
:1010B400EDFF03461B4AA2FB03239B0C4FF47A72F9
:1010C40002FB03F3BB60164B5A68FB68D31ABA6879
:1010D4009A42F8D83B6901333B613B69002BD7D076
:1010E4007B69013B7B617B69002B05D10E4B01229F
:1010F4001A700D4B1B780DE07B681B6802211846A3
:10110400FFF78CFF0346002BBFD07B681B68184693
:10111400FFF730FE18461837BD4680BDF0ED00E0FD
:10112400001000E083DE1B432C01002080B590B04A
:1011340000AFF860B9607A60FB68DB68FB63FB684A
:10114400DB68BB63FB681B681846FFF77BFFF86826
:10115400FFF78CFF0346654A1370644B1B78012B21
:1011640075D1624B1B78BDE000237B6324E0604BA8
:10117400DB685F4A43F08073D3605E4B1B685D4A53
:1011840043F0010313605B4B5B68BB6100F07EFFBF
:101194000346594AA2FB03239B0C4FF47A7202FBC9
:1011A40003F37B61534B5A68BB69D31A7A699A4239
:1011B400F8D87B6B01337B637B6B002BD7D0FB6B45
:1011C400013BFB63FB6B002B02D1484B1B7889E08E
:1011D400FB681B6880211846FFF720FF0346002B9D
:1011E400C2D0BB681A78FB681B681A6100233B6392
:1011F40024E03F4BDB683E4A43F08073D3603D4BB1
:101204001B683C4A43F0010313603A4B5B683B6242
:1012140000F03CFF0346384AA2FB03239B0C4FF427
:101224007A7202FB03F3FB61324B5A683B6AD31AAE
:10123400FA699A42F8D83B6B01333B633B6B002B52
:10124400D7D0BB680133BB607B68013B7B607B68A4
:10125400002BBDD133E00023FB6224E0244BDB6888
:10126400234A43F08073D360224B1B68214A43F026
:10127400010313601F4B5B68BB6200F007FF03466A
:101284001D4AA2FB03239B0C4FF47A7202FB03F367
:101294007B62184B5A68BB6AD31A7A6A9A42F8D8A6
:1012A400FB6A0133FB62FB6A002BD7D0BB6B013BAB
:1012B400BB63BB6B002B02D10C4B1B7812E0FB68A9
:1012C4001B6804211846FFF7A9FE0346002BC2D071
:1012D400FB681B68184600F011F8044B00221A70D2
:1012E400024B1B7818464037BD4680BD2C010020B8
:1012F400F0ED00E0001000E083DE1B4380B582B017
:1013040000AF78607868FFF745FD00BF7B689B6994
:1013140003F00203002BF9D100BF00BF0837BD461C
:1013240080BD000080B500AF0B4B0C4A1A600A4B1D
:1013340001225A72084B27221A72074B00225A8143
:10134400054B074A5A60044B4FF47A72DA6002483C
:10135400FFF7BAFD00BF80BD3001002000540040FB
:10136400A086010080B59CB000AFFFF7DBFF00232F
:10137400FB6624E0A04BDB689F4A43F08073D36094
:101384009E4B1B689D4A43F0010313609B4B5B68B3
:10139400BB6000F07BFE0346994AA2FB03239B0C2F
:1013A4004FF47A7202FB03F37B60944B5A68BB6878
:1013B400D31A7A689A42F8D8FB6E0133FB66FB6E47
:1013C400092BD7D9332000F08FF9322000F08CF9A3
:1013D4000023BB6624E0884BDB68874A43F08073B4
:1013E400D360864B1B68854A43F001031360834B2B
:1013F4005B683B6100F04AFE0346814AA2FB03237B
:101404009B0C4FF47A7202FB03F3FB607B4B5A682C
:101414003B69D31AFA689A42F8D8BB6E0133BB66AB
:10142400BB6E002BD7D000237B6624E0724BDB68B5
:10143400714A43F08073D360704B1B686F4A43F06A
:10144400010313606D4B5B68BB6100F01FFE034634
:101454006B4AA2FB03239B0C4FF47A7202FB03F347
:101464007B61664B5A68BB69D31A7A699A42F8D889
:101474007B6E01337B667B6E002BD7D0282000F077
:1014840033F900233B6624E05B4BDB685A4A43F0A4
:101494008073D360594B1B68584A43F001031360AF
:1014A400564B5B683B6200F0F1FD0346544AA2FBD5
:1014B40003239B0C4FF47A7202FB03F3FB614F4B43
:1014C4005A683B6AD31AFA699A42F8D83B6E0133D8
:1014D4003B663B6E002BD7D0012000F005F90023BA
:1014E400FB6524E0444BDB68434A43F08073D360DC
:1014F400424B1B68414A43F0010313603F4B5B6856
:10150400BB6200F0C3FD03463D4AA2FB03239B0CD0
:101514004FF47A7202FB03F37B62384B5A68BB6A5E
:10152400D31A7A6A9A42F8D8FB6D0133FB65FB6DD6
:10153400002BD7D0062000F0D7F80023BB6524E0A9
:101544002D4BDB682C4A43F08073D3602B4B1B6814
:101554002A4A43F001031360284B5B683B6300F0A5
:1015640095FD0346264AA2FB03239B0C4FF47A7293
:1015740002FB03F3FB62214B5A683B6BD31AFA6AF2
:101584009A42F8D8BB6D0133BB65BB6D012BD7D92B
:101594000C2000F0A9F800237B6524E0164BDB68DF
:1015A400154A43F08073D360144B1B68134A43F00D
:1015B40001031360114B5B68BB6300F067FD0346D6
:1015C4000F4AA2FB03239B0C4FF47A7202FB03F332
:1015D4007B630A4B5A68BB6BD31A7A6B9A42F8D86E
:1015E4007B6D01337B657B6D002BD7D0022000F02F
:1015F4007BF800233B652AE0F0ED00E0001000E0FA
:1016040083DE1B43344BDB68334A43F08073D3607F
:10161400324B1B68314A43F0010313602F4B5B6864
:101624003B6400F033FD03462D4AA2FB03239B0CCD
:101634004FF47A7202FB03F3FB63284B5A683B6C4A
:10164400D31AFA6B9A42F8D83B6D01333B653B6D74
:10165400002BD7D000F0BAF80021002000F0F2F8F7
:10166400204800F09DF80021012000F0EBF81D480F
:1016740000F096F80023FB6424E0174BDB68164A5D
:1016840043F08073D360154B1B68144A43F0010385
:101694001360124B5B68BB6400F0F8FC0346104A0D
:1016A400A2FB03239B0C4FF47A7202FB03F37B64CB
:1016B4000A4B5A68BB6CD31A7A6C9A42F8D8FB6C02
:1016C4000133FB64FB6CB3F5FA7FD6D300F07EF8EC
:1016D40000BF7037BD4680BDF0ED00E0001000E0B3
:1016E40083DE1B436039000880B584B000AF034635
:1016F400FB71FB7923F00F03FB73FB791B01BB73B5
:10170400FB7B43F00C03DBB23B72FB7B43F008032F
:10171400DBB27B72BB7B43F00C03DBB2BB72BB7BE3
:1017240043F00803DBB2FB7207F1080304221946F5
:101734000348FFF7FBFC00BF1037BD4680BD00BF68
:101744003001002080B584B000AF0346FB71FB7903
:1017540023F00F03FB73FB791B01BB73FB7B43F08B
:101764000D03DBB23B72FB7B43F00903DBB27B72FC
:10177400BB7B43F00D03DBB2BB72BB7B43F00903BD
:10178400DBB2FB7207F10803042219460348FFF792
:10179400CDFC00BF1037BD4680BD00BF3001002026
:1017A40080B582B000AF786006E07B685A1C7A602E
:1017B4001B781846FFF7C6FF7B681B78002BF4D113
:1017C40000BF00BF0837BD4680BD000080B584B0AF
:1017D40000AF0120FFF788FF0023FB6024E0164BD5
:1017E400DB68154A43F08073D360144B1B68134ABB
:1017F40043F001031360114B5B68BB6000F046FCCF
:1018040003460F4AA2FB03239B0C4FF47A7202FB9C
:1018140003F37B60094B5A68BB68D31A7A689A420F
:10182400F8D8FB680133FB60FB68002BD7D000BFFE
:1018340000BF1037BD4680BDF0ED00E0001000E0B1
:1018440083DE1B4380B582B000AF786039607B686B
:10185400002B03D07B68012B05D009E03B6843F0E3
:1018640080033B6004E03B6843F0C0033B6000BF7F
:101874003B68DBB21846FFF737FF00BF0837BD46A9
:1018840080BD000080B598B000AF0023FB6524E064
:10189400A14BDB68A04A43F08073D3609F4B1B6865
:1018A4009E4A43F0010313609C4B5B687B6000F02D
:1018B400EDFB03469A4AA2FB03239B0C4FF47A7276
:1018C40002FB03F33B60954B5A687B68D31A3A6872
:1018D4009A42F8D8FB6D0133FB65FB6D092BD7D910
:1018E400022000F066F90023BB6524E08A4BDB6824
:1018F400894A43F08073D360884B1B68874A43F05E
:1019040001031360854B5B68FB6000F0BFFB03467B
:10191400834AA2FB03239B0C4FF47A7202FB03F36A
:10192400BB607E4B5A68FB68D31ABA689A42F8D8EF
:10193400BB6D0133BB65BB6DB3F57A7FD6D328206D
:1019440000F037F900237B6524E0734BDB68724AAF
:1019540043F08073D360714B1B68704A43F00103FA
:1019640013606E4B5B687B6100F090FB03466C4A2E
:10197400A2FB03239B0C4FF47A7202FB03F33B613B
:10198400664B5A687B69D31A3A699A42F8D87B6DD8
:1019940001337B657B6D002BD7D00C2000F009F957
:1019A40000233B6524E05C4BDB685B4A43F08073B7
:1019B400D3605A4B1B68594A43F001031360574BD9
:1019C4005B68FB6100F062FB0346554AA2FB0323FC
:1019D4009B0C4FF47A7202FB03F3BB614F4B5A68C2
:1019E400FB69D31ABA699A42F8D83B6D01333B6557
:1019F4003B6D002BD7D0012000F0DBF80023FB6403
:101A040024E0454BDB68444A43F08073D360434B86
:101A14001B68424A43F001031360404B5B687B62DE
:101A240000F034FB03463E4AA2FB03239B0C4FF415
:101A34007A7202FB03F33B62384B5A687B6AD31A0F
:101A44003A6A9A42F8D8FB6C0133FB64FB6C012BB5
:101A5400D7D9062000F0ADF80023BB6424E02E4B58
:101A6400DB682D4A43F08073D3602C4B1B682B4AF0
:101A740043F001031360294B5B68FB6200F006FB33
:101A84000346274AA2FB03239B0C4FF47A7202FB02
:101A940003F3BB62214B5A68FB6AD31ABA6A9A42AF
:101AA400F8D8BB6C0133BB64BB6C002BD7D00023CC
:101AB4007B6424E0184BDB68174A43F08073D360DF
:101AC400164B1B68154A43F001031360134B5B6804
:101AD4007B6300F0DBFA0346114AA2FB03239B0C51
:101AE4004FF47A7202FB03F33B630C4B5A687B6B33
:101AF400D31A3A6B9A42F8D87B6C01337B647B6CC3
:101B0400C72BD7D90021002000F0E4F8054800F0E5
:101B14008FF800233B642CE0F0ED00E0001000E0BF
:101B240083DE1B4370390008174BDB68164A43F009
:101B34008073D360154B1B68144A43F00103136090
:101B4400124B5B68FB6300F0A1FA0346104AA2FB48
:101B540003239B0C4FF47A7202FB03F3BB630B4B1E
:101B64005A68FB6BD31ABA6B9A42F8D83B6C0133B0
:101B74003B643B6CB3F5FA7FD6D300F06FF800BF3B
:101B84006037BD4680BD00BFF0ED00E0001000E00E
:101B940083DE1B4380B582B000AF0346FB71FB7943
:101BA400002207211846FEF747FD00BF0837BD464F
:101BB40080BD80B584B000AF0346FB71FB791B097F
:101BC400DBB243F02003DBB203F03F03FB73FB7B88
:101BD4001846FFF7DFFFFB7903F00F03FB73FB7B72
:101BE4001846FFF7D7FF00BF1037BD4680BD80B54C
:101BF40084B000AF0346FB71FB791B09DBB243F0F1
:101C04001003DBB203F01F03FB73FB7B1846FFF7E3
:101C1400C1FFFB7943F01003DBB203F01F03FB7336
:101C2400FB7B1846FFF7B6FF00BF1037BD4680BDEB
:101C340080B582B000AF786006E07B685A1C7A6099
:101C44001B781846FFF7D3FF7B681B78002BF4D171
:101C540000BF00BF0837BD4680BD000080B584B01A
:101C640000AF0120FFF7A5FF0023FB6024E0164B23
:101C7400DB68154A43F08073D360144B1B68134A26
:101C840043F001031360114B5B68BB6000F0FEF985
:101C940003460F4AA2FB03239B0C4FF47A7202FB08
:101CA40003F37B60094B5A68BB68D31A7A689A427B
:101CB400F8D8FB680133FB60FB68012BD7D900BF60
:101CC40000BF1037BD4680BDF0ED00E0001000E01D
:101CD40083DE1B4380B582B000AF786039607B68D7
:101CE400032B1FD801A252F823F000BF011D0008E6
:101CF4000B1D0008151D00081F1D00083B6843F05C
:101D040080033B600EE03B6843F0C0033B6009E0A6
:101D14003B6843F094033B6004E03B6843F0D40326
:101D24003B6000BF3B68DBB21846FFF742FF00BFD1
:101D34000837BD4680BD00BF90B589B000AF78605C
:101D440039607C6807F108033968184601F0CBFB59
:101D540007F1080319462046FEF76CFE07F1080355
:101D6400184601F08CFB7B6818462437BD4690BDAD
:101D740080B5A2B000AF00F009FB00F0B1F800F0AC
:101D840069FA07F134033B6707F1340207F11C03D6
:101D94004D49184601F0D0FB07F11C0207F114036A
:101DA40011461846FFF7C8FF07F11C03184601F057
:101DB40066FB07F13403184600F002F907F15003FB
:101DC4007B6707F1500207F138034049184601F0D8
:101DD400B3FB07F1380207F10C0311461846FFF76D
:101DE400ABFF07F13803184601F049FB07F1500334
:101DF400184600F0E5F807F16C03BB6707F16C02C5
:101E040007F154033249184601F096FB07F15402D6
:101E14003B1D11461846FFF78FFF07F15403184680
:101E240001F02DFB07F16C03184600F0C9F807F127
:101E3400140380211846FEF761FE07F10C034021CC
:101E44001846FEF75BFE3B1D20211846FEF756FEA2
:101E54000023C7F884302DE01E4BDB681D4A43F095
:101E64008073D3601C4B1B681B4A43F0010313604F
:101E7400194B5B68C7F8803000F008F90346174A2D
:101E8400A2FB03239B0C4FF47A7202FB03F3FB6760
:101E9400114B5A68D7F88030D31AFA6F9A428CBF24
:101EA40001230023DBB2002BF2D1D7F884300133B5
:101EB400C7F88430D7F88430B3F57A7FCCD3FFF7F2
:101EC40085FC00BFFDE700BF88390008943900088D
:101ED400A4390008F0ED00E0001000E083DE1B43AD
:101EE40080B594B000AF07F12003302200211846DA
:101EF40001F034FC07F10C0300221A605A609A6066
:101F0400DA601A610023BB60284B1B6C274A43F03C
:101F140080531364254B1B6C03F08053BB60BB6878
:101F240000237B60224B1B6823F44043204A43F484
:101F3400004313601E4B1B6803F440437B607B68C3
:101F440002233B620123FB6210233B630023BB6338
:101F540007F12003184600F071FB0346002B14BF61
:101F640001230023DBB2002B01D000F023F80F2360
:101F7400FB6000233B6100237B610023BB610023E2
:101F8400FB6107F10C030021184600F0CFFD034666
:101F9400002B14BF01230023DBB2002B01D000F07F
:101FA40009F800BF5037BD4680BD00BF003802406D
:101FB4000070004080B400AF72B600BF00BFFDE700
:101FC40080B483B000AF78607B6818460C37BD4698
:101FD4005DF8047B704780B400AF00231846BD460B
:101FE4005DF8047B7047000080B584B000AF224BDD
:101FF4009B689B08DBB203F003037B727B7A002BA4
:1020040002D11E4BFB600BE07B7A012B02D11C4BEF
:10201400FB6005E07B7A022B02D1FFF7DCFFF8605E
:10202400154B9B681B093B723B7A072B02D8012393
:10203400FB7205E03B7A083B124A32F81330FB721C
:102044000D4B9B689B0A3B723B7A032B02D80123FE
:10205400BB7204E03B7A043B0B4AD35CBB72FB7A51
:10206400FA68B2FBF3F2BB7AB2FBF3F37B607B68F2
:1020740018461037BD4680BD003802400024F400E5
:1020840000127A00000000201000002080B582B009
:1020940000AF0C4B9B689B08DBB203F00303FB719E
:1020A400FB79002B01D1084B07E0FB79012B01D10F
:1020B400064B02E0FFF78FFF034618460837BD467C
:1020C40080BD00BF003802400024F40000127A00F2
:1020D40080B483B000AF00237B60104B5B6C0F4A6D
:1020E40043F4804353640D4B5B6C03F480437B6087
:1020F4007B6800233B60094B1B6C084A43F0805308
:102104001364064B1B6C03F080533B603B6800BFB9
:102114000C37BD465DF8047B704700BF00380240B1
:1021240080B400AF00BFFDE780B400AF00BFFDE79F
:1021340080B400AF00BFFDE780B400AF00BFFDE78F
:1021440080B400AF00BFFDE780B400AF00BFBD4660
:102154005DF8047B704780B400AF00BFBD465DF8F6
:10216400047B704780B400AF00BFBD465DF8047BBC
:10217400704780B500AF00F05BF900BF80BD80B44C
:1021840000AF01231846BD465DF8047B704780B557
:1021940082B000AF7860396001F03CFB0346162240
:1021A4001A604FF0FF3318460837BD4680BD80B52E
:1021B40082B000AF78604FF0FF317868FFF7E7FF37
:1021C40000BFFDE780B586B000AF7860144A154BB8
:1021D400D31A7B617B693B61134B1B68002B02D1D3
:1021E400114B124A1A60104B1A687B6813443A69FF
:1021F4009A4207D201F00EFB03460C221A604FF0FC
:10220400FF3309E0084B1B68FB60074B1A687B68C7
:102214001344054A1360FB6818461837BD4680BD51
:10222400008001200004000040010020E0020020A2
:1022340080B400AF064BD3F88830054A43F47003EA
:10224400C2F8883000BFBD465DF8047B704700BF0C
:1022540000ED00E080B586B000AF07F1080300226E
:102264001A605A609A60DA603B4600221A605A602B
:102274001E4B1F4A1A601D4B00225A601B4B002242
:102284009A601A4B4FF6FF72DA60184B00221A61FB
:10229400164B00225A61154B00229A61134800F034
:1022A400F1FD0346002B01D0FFF784FE4FF4805369
:1022B400BB6007F1080319460C4800F032FE0346E0
:1022C400002B01D0FFF776FE00233B6000237B60E8
:1022D4003B461946054801F00BF80346002B01D094
:1022E400FFF768FE00BF1837BD4680BD44010020DB
:1022F4000000014080B485B000AF78607B681B6843
:102304000B4A93420DD10023FB600A4B5B6C094AD4
:1023140043F001035364074B5B6C03F00103FB6060
:10232400FB6800BF1437BD465DF8047B704700BFEF
:102334000000014000380240DFF834D0FFF778FF96
:102344000C480D490D4A002302E0D458C45004330C
:10235400C4188C42F9D30A4A0A4C002301E01360E2
:102364000432A242FBD301F05BFAFFF701FD704790
:102374000080012000000020700000201C3A0008AA
:1023840070000020DC020020FEE7000080B500AFF2
:102394000E4B1B680D4A43F4007313600B4B1B6810
:1023A4000A4A43F480631360084B1B68074A43F4EA
:1023B40080731360032000F00DF90F2000F008F87B
:1023C400FFF786FE0023184680BD00BF003C024094
:1023D40080B582B000AF7860124B1A68124B1B783C
:1023E40019464FF47A73B3FBF1F3B2FBF3F31846D7
:1023F40000F017F90346002B01D001230EE07B689F
:102404000F2B0AD8002279684FF0FF3000F0EDF866
:10241400064A7B681360002300E00123184608374E
:10242400BD4680BD140000201C00002018000020C0
:1024340080B400AF064B1B781A46064B1B68134446
:10244400044A136000BFBD465DF8047B704700BFBB
:102454001C0000208C01002080B400AF034B1B68DB
:102464001846BD465DF8047B704700BF8C01002010
:1024740080B485B000AF78607B6803F00703FB602D
:102484000C4BDB68BB60BA684FF6FF031340BB60BC
:10249400FB681A02BB68134343F0BF6343F4003381
:1024A400BB60044ABB68D36000BF1437BD465DF807
:1024B400047B704700ED00E080B400AF044BDB68A0
:1024C4001B0A03F007031846BD465DF8047B7047FA
:1024D40000ED00E080B483B000AF03463960FB71C7
:1024E40097F90730002B0ADB3B68DAB20C4997F9FD
:1024F40007301201D2B20B4483F800230AE03B6890
:10250400DAB20849FB7903F00F03043B1201D2B29B
:102514000B441A7600BF0C37BD465DF8047B704748
:1025240000E100E000ED00E080B489B000AFF860A5
:10253400B9607A60FB6803F00703FB61FB69C3F1D0
:102544000703042B28BF0423BB61FB690433062B58
:1025540002D9FB69033B00E000237B614FF0FF32AB
:10256400BB6902FA03F3DA43BB681A407B699A40F9
:102574004FF0FF317B6901FA03F3D9437B680B40C9
:10258400134318462437BD465DF8047B70470000AA
:1025940080B582B000AF78607B68013BB3F1807F87
:1025A40001D301230FE00A4A7B68013B53600F21EA
:1025B4004FF0FF30FFF78EFF054B00229A60044B6B
:1025C40007221A60002318460837BD4680BD00BFA5
:1025D40010E000E080B582B000AF78607868FFF763
:1025E40047FF00BF0837BD4680BD80B586B000AF49
:1025F4000346B9607A60FB7300237B61FFF75CFFDD
:1026040078617A68B9687869FFF78EFF024697F9AE
:102614000F3011461846FFF75DFF00BF1837BD465F
:1026240080BD80B582B000AF78607868FFF7B0FFF6
:10263400034618460837BD4680BD000080B586B005
:1026440000AF78607B68002B01D1012367E27B68CF
:102654001B6803F00103002B75D0884B9B6803F0C3
:102664000C03042B0CD0854B9B6803F00C03082B44
:1026740012D1824B5B6803F48003B3F5800F0BD156
:102684007E4B1B6803F40033002B5BD07B685B68D4
:10269400002B57D1012342E27B685B68B3F5803F8E
:1026A40006D1764B1B68754A43F4803313601DE0F2
:1026B4007B685B68B3F5A02F0CD1704B1B686F4A25
:1026C40043F4802313606D4B1B686C4A43F48033DE
:1026D40013600BE0694B1B68684A23F48033136072
:1026E400664B1B68654A23F4802313607B685B6830
:1026F400002B13D0FFF7B0FE386108E0FFF7ACFE03
:1027040002463B69D31A642B01D9032307E25B4BCE
:102714001B6803F40033002BF0D014E0FFF79CFE99
:10272400386108E0FFF798FE02463B69D31A642B30
:1027340001D90323F3E1514B1B6803F40033002B4D
:10274400F0D100E000BF7B681B6803F00203002B9C
:1027540063D04A4B9B6803F00C03002B0BD0474B10
:102764009B6803F00C03082B1CD1444B5B6803F4F7
:102774008003002B16D1414B1B6803F00203002B8E
:1027840005D07B68DB68012B01D00123C7E13B4BFB
:102794001B6823F0F8027B681B69DB00374913438D
:1027A4000B603AE07B68DB68002B20D0344B0122BD
:1027B4001A60FFF751FE386108E0FFF74DFE02464C
:1027C4003B69D31A022B01D90323A8E12B4B1B68C5
:1027D40003F00203002BF0D0284B1B6823F0F8020F
:1027E4007B681B69DB00254913430B6015E0244B10
:1027F40000221A60FFF730FE386108E0FFF72CFE74
:1028040002463B69D31A022B01D9032387E11B4BF0
:102814001B6803F00203002BF0D17B681B6803F0F4
:102824000803002B36D07B685B69002B16D0154B50
:1028340001221A60FFF710FE386108E0FFF70CFE72
:1028440002463B69D31A022B01D9032367E10B4BE0
:102854005B6F03F00203002BF0D01BE0094B002256
:102864001A60FFF7F9FD38610EE0FFF7F5FD024647
:102874003B69D31A022B07D9032350E100380240E5
:1028840000004742800E4742884B5B6F03F002030F
:10289400002BEAD17B681B6803F00403002B00F0D3
:1028A40097800023FB75814B1B6C03F08053002B36
:1028B4000FD10023BB607D4B1B6C7C4A43F08053DB
:1028C40013647A4B1B6C03F08053BB60BB68012319
:1028D400FB75774B1B6803F48073002B18D1744B82
:1028E4001B68734A43F480731360FFF7B5FD3861C6
:1028F40008E0FFF7B1FD02463B69D31A022B01D968
:1029040003230CE16A4B1B6803F48073002BF0D0A3
:102914007B689B68012B06D1644B1B6F634A43F0B1
:10292400010313671CE07B689B68052B0CD15F4B8C
:102934001B6F5E4A43F0040313675C4B1B6F5B4AD7
:1029440043F0010313670BE0584B1B6F574A23F006
:1029540001031367554B1B6F544A23F00403136799
:102964007B689B68002B15D0FFF776FD38610AE081
:10297400FFF772FD02463B69D31A41F28832934253
:1029840001D90323CBE0494B1B6F03F00203002B57
:10299400EED014E0FFF760FD38610AE0FFF75CFD5C
:1029A40002463B69D31A41F28832934201D9032388
:1029B400B5E03E4B1B6F03F00203002BEED1FB7D11
:1029C400012B05D1394B1B6C384A23F08053136417
:1029D4007B689B69002B00F0A180344B9B6803F05B
:1029E4000C03082B5CD07B689B69022B41D1314BD3
:1029F40000221A60FFF730FD386108E0FFF72CFD74
:102A040002463B69D31A022B01D9032387E0274BE3
:102A14001B6803F00073002BF0D17B68DA697B68D4
:102A24001B6A1A437B685B6A9B011A437B689B6A37
:102A34005B08013B1B041A437B68DB6A1B061B49CA
:102A440013434B601B4B01221A60FFF705FD3861ED
:102A540008E0FFF701FD02463B69D31A022B01D9B6
:102A640003235CE0114B1B6803F00073002BF0D0D0
:102A740054E0104B00221A60FFF7EEFC386108E0C6
:102A8400FFF7EAFC02463B69D31A022B01D9032360
:102A940045E0064B1B6803F00073002BF0D13DE0CA
:102AA4007B689B69012B07D1012338E00038024081
:102AB40000700040600047421B4B5B68FB607B6812
:102AC4009B69012B28D0FB6803F480027B68DB69D7
:102AD4009A4221D1FB6803F03F027B681B6A9A4249
:102AE4001AD1FA6847F6C07313407A68526A9201A1
:102AF400934211D1FB6803F440327B689B6A5B0804
:102B0400013B1B049A4207D1FB6803F070627B68A7
:102B1400DB6A1B069A4201D0012300E00023184619
:102B24001837BD4680BD00BF0038024080B584B070
:102B340000AF786039607B68002B01D10123CCE0C1
:102B4400684B1B6803F007033A689A420CD9654B3B
:102B54003A68D2B21A70634B1B6803F007033A68F1
:102B64009A4201D00123B8E07B681B6803F002039A
:102B7400002B20D07B681B6803F00403002B05D0D6
:102B8400594B9B68584A43F4E05393607B681B6835
:102B940003F00803002B05D0534B9B68524A43F4BF
:102BA40060439360504B9B6823F0F0027B689B6802
:102BB4004D4913438B607B681B6803F00103002BB2
:102BC40044D07B685B68012B07D1474B1B6803F437
:102BD4000033002B19D101237FE07B685B68022B53
:102BE40003D07B685B68032B07D13F4B1B6803F062
:102BF4000073002B09D101236FE03B4B1B6803F0EA
:102C04000203002B01D1012367E0374B9B6823F0BB
:102C140003027B685B68344913438B60FFF71CFC39
:102C2400F8600AE0FFF718FC0246FB68D31A41F289
:102C34008832934201D903234FE02B4B9B6803F066
:102C44000C027B685B689B009A42EBD1254B1B68A6
:102C540003F007033A689A420CD2224B3A68D2B284
:102C64001A70204B1B6803F007033A689A4201D09C
:102C7400012332E07B681B6803F00403002B08D0B7
:102C8400194B9B6823F4E0527B68DB6816491343B5
:102C94008B607B681B6803F00803002B09D0124B80
:102CA4009B6823F460427B681B69DB000E49134375
:102CB4008B6000F021F802460B4B9B681B0903F064
:102CC4000F030A49CB5C22FA03F3094A1360094B48
:102CD4001B681846FFF77CFB002318461037BD46D7
:102CE40080BD00BF003C024000380240B0390008FB
:102CF40014000020180000202DE9B04F90B000AF60
:102D040000237B630023FB6300233B630023BB633B
:102D1400594B9B6803F00C03082B0DD0082B00F2D1
:102D2400A180002B02D0042B03D09BE0534BBB6348
:102D34009BE0534BBB6398E04F4B5B6803F03F034E
:102D44007B634D4B5B6803F48003002B28D04A4B14
:102D54005B689B0900223B627A623B6AC3F308000A
:102D64000021474B03FB01F2002300FB03F3134450
:102D7400434AA0FB0212FA620A46BA62FA6A134490
:102D8400FB627B6B0022BB61FA61D7E90623D7E9BA
:102D94000A01FDF725FA02460B461346FB6353E08E
:102DA400354B5B689B0900223B617A613B69C3F345
:102DB400080A4FF0000B52465B464FF000004FF0FC
:102DC4000001590141EAD261500102460B46B2EBBF
:102DD4000A0863EB0B094FF000024FF000034FEABF
:102DE400891343EA98634FEA8812B2EB080463EB51
:102DF40009054FF000024FF00003EB0043EA54735F
:102E0400E20014461D4614EB0A033B6045EB0B033A
:102E14007B604FF000024FF00003D7E900452946DC
:102E24008B02214643EA915321468A0210461946F1
:102E34007B6B0022BB60FA60D7E90223FDF7D0F96F
:102E440002460B461346FB630B4B5B681B0C03F0FB
:102E5400030301335B003B63FA6B3B6BB2FBF3F39D
:102E6400BB6302E0054BBB6300BFBB6B1846403736
:102E7400BD46BDE8B08F00BF003802400024F40016
:102E840040787D0180B582B000AF78607B68002B0C
:102E940001D1012341E07B6893F83D30DBB2002B84
:102EA40006D17B68002283F83C207868FFF722FA79
:102EB4007B68022283F83D207B681A687B680433B0
:102EC4001946104600F0F4F87B68012283F8462086
:102ED4007B68012283F83E207B68012283F83F202F
:102EE4007B68012283F840207B68012283F841201B
:102EF4007B68012283F842207B68012283F8432007
:102F04007B68012283F844207B68012283F84520F2
:102F14007B68012283F83D20002318460837BD460C
:102F240080BD80B584B000AF786039600023FB7346
:102F34007B6893F83C30012B01D10223B4E07B6819
:102F4400012283F83C207B68022283F83D207B68C1
:102F54001B689B68BB60BB6823F07703BB60BB68DE
:102F640023F47F43BB607B681B68BA689A603B6844
:102F74001B68B3F5005F3ED0B3F5005F00F28780B5
:102F8400B3F5805F00F08680B3F5805F7FD8702B47
:102F94001AD0702B7BD8602B50D0602B77D8502B55
:102FA4003CD0502B73D8402B58D0402B6FD8302BAB
:102FB40064D0302B6BD8202B60D0202B67D8002B0B
:102FC4005CD0102B5AD062E07B6818683B68996823
:102FD4003B685A683B68DB6800F06AF97B681B68E9
:102FE4009B68BB60BB6843F07703BB607B681B686E
:102FF400BA689A604FE07B6818683B6899683B68D8
:103004005A683B68DB6800F053F97B681B689A6870
:103014007B681B6842F480429A603CE07B681868D5
:103024003B6859683B68DB681A4600F0C7F87B6860
:103034001B685021184600F020F92CE07B681868C2
:103044003B6859683B68DB681A4600F0E6F87B6821
:103054001B686021184600F010F91CE07B681868B2
:103064003B6859683B68DB681A4600F0A7F87B6840
:103074001B684021184600F000F90CE07B681A68D0
:103084003B681B681946104600F0F7F803E001237B
:10309400FB7300E000BF7B68012283F83D207B685E
:1030A400002283F83C20FB7B18461037BD4680BDC8
:1030B40080B485B000AF786039607B681B68FB60C2
:1030C4007B68374A93420FD07B68B3F1804F0BD0B3
:1030D4007B68344A934207D07B68334A934203D0D7
:1030E4007B68324A934208D1FB6823F07003FB608B
:1030F4003B685B68FA681343FB607B68284A934229
:103104001BD07B68B3F1804F17D07B68254A93426C
:1031140013D07B68244A93420FD07B68234A93429E
:103124000BD07B68224A934207D07B68214A9342A2
:1031340003D07B68204A934208D1FB6823F4407390
:10314400FB603B68DB68FA681343FB60FB6823F0B1
:1031540080023B685B691343FB603B689A687B6849
:10316400DA623B681A687B689A627B680C4A93420D
:1031740003D13B681A697B681A637B681B6843F058
:1031840004027B681A607B6801225A617B68FA68D2
:103194001A6000BF1437BD465DF8047B704700BF5A
:1031A400000001400004004000080040000C004002
:1031B40000400140004401400048014080B487B011
:1031C40000AFF860B9607A60FB681B6A7B61FB68DA
:1031D4001B6A23F00102FB681A62FB689B693B616E
:1031E4003B6923F0F0033B617B681B013A6913439D
:1031F4003B617B6923F00A037B617A69BB681343F3
:103204007B61FB683A699A61FB687A691A6200BF5C
:103214001C37BD465DF8047B704780B487B000AFAF
:10322400F860B9607A60FB681B6A7B61FB681B6AA3
:1032340023F01002FB681A62FB689B693B613B69DF
:1032440023F470433B617B681B033A6913433B617E
:103254007B6923F0A0037B61BB681B017A6913437C
:103264007B61FB683A699A61FB687A691A6200BFFC
:103274001C37BD465DF8047B704780B485B000AF51
:10328400786039607B689B68FB60FB6823F070039F
:10329400FB603A68FB68134343F00703FB607B68F9
:1032A400FA689A6000BF1437BD465DF8047B704726
:1032B40080B487B000AFF860B9607A603B60FB68A7
:1032C4009B687B617B6923F47F437B613B681A02C3
:1032D4007B681A43BB6813437A6913437B61FB68B9
:1032E4007A699A6000BF1C37BD465DF8047B70475D
:1032F40080B485B000AF786039607B6893F83C3067
:10330400012B01D1022350E07B68012283F83C2089
:103314007B68022283F83D207B681B685B68FB6046
:103324007B681B689B68BB60FB6823F07003FB60D1
:103334003B681B68FA681343FB607B681B68FA6888
:103344005A607B681B681C4A934218D07B681B68D0
:10335400B3F1804F13D07B681B68184A93420ED098
:103364007B681B68164A934209D07B681B68154A20
:10337400934204D07B681B68134A93420CD1BB6808
:1033840023F08003BB603B685B68BA681343BB608F
:103394007B681B68BA689A607B68012283F83D20C9
:1033A4007B68002283F83C20002318461437BD466E
:1033B4005DF8047B704700BF00000140000400403A
:1033C40000080040000C0040004001400AB100F039
:1033D4004DBA70470AB100F0B1B910467047081EE3
:1033E40008B501DA00F0D3F8BDE8084000F0BEB833
:1033F40050F8083B1B1A5842584170470B68B3F108
:10340400804F10B502D30B4800F0C7F893420BD994
:10341400B3EB420F4FEA420406D2B4F1804F2ABF05
:103424006FF040430C600B6009680131FFF7D7FF70
:1034340010BD00BFC0390008006800F095B810B591
:103444000446FFF7D5FF18B9A1682046FFF7F4FF3B
:1034540010BD012A10B404D10A785DF8044B02703F
:1034640070475DF8044BFFF7B1BF08B5521AFFF778
:10347400F0FF08BD08B5521AFFF7EBFF08BD10B501
:103484000446FFF7DCFF204610BDF8B54768054643
:1034940008460E46FCF79CFE874204463A463146EF
:1034A40028BF02462868FFF795FF00B9381BF8BD0E
:1034B40073B5531A0F2B04460D461646019306D9CD
:1034C400002201A9FFF79AFF019B2060A360324606
:1034D40029462068FFF7C9FF019B22686360002129
:1034E400D15402B070BD00F1080210B50260D1E9F8
:1034F400001204464FF000030A44FFF7D9FF2046A8
:1035040010BD73B5531A0F2B04460D46164601938E
:1035140006D9002201A9FFF771FF019B2060A36077
:10352400324629462068FFF7A5FF019B22686360A5
:103534000021D15402B070BD38B500F1080304462F
:1035440003600D4611B9074800F024F80846FCF75B
:103554003FFE4FF000032A1829462046FFF7D1FF0B
:10356400204638BDD839000800F032B8012838BFE9
:10357400012010B50446204600F022F800B110BD29
:1035840000F00EF808B900F013F88047F3E708B527
:1035940000F00EF808B500F00BF808B500F008F8D4
:1035A400024B1868BFF35B8F704700BF9001002087
:1035B40008B5062000F002F90120FEF7F8FD00002E
:1035C400024B0146186800F02DB800BF200000200F
:1035D400024B0146186800F057B900BF20000020D4
:1035E40070B50F4E0C463168054611B900F002F96A
:1035F40030602146284600F0FDF8431C03D14FF00B
:10360400FF34204670BDC41C24F00304A042F8D04B
:10361400211A284600F0EEF80130F2D1EFE700BF9E
:10362400940100202DE9F843CD1C25F0030508354D
:103634000C2D38BF0C25002D064601DBA94204D908
:103644000C2333600020BDE8F883DFF8D48000F059
:1036540069F8D8F800301C4644BB29463046FFF7C9
:10366400BFFF431C044658D1D8F800402746002F1A
:1036740043D1002C4BD023683946304604EB030970
:1036840000F0B8F8814542D121686D1A29463046C8
:10369400FFF7A6FF01303AD023682B442360D8F803
:1036A40000305A6862BBC8F800700FE02268521BF1
:1036B40020D40B2A17D96119A342256018BF596079
:1036C400636808BFC8F8001062514B60304600F0D0
:1036D4002FF804F10B00231D20F00700C21A1CBFB1
:1036E4001B1AA350AFE76268A3420CBFC8F80020BE
:1036F4005A60EBE723466468AEE73C467F68B6E76A
:103704001A465B68A342FBD100235360DEE70C2317
:103714003360304600F00CF894E70560D6E700BF4C
:1037240098010020014800F09FB800BFD802002093
:10373400014800F09AB800BFD802002010B5013942
:103744000244904201D1002005E0037811F8014FB2
:10375400A34201D0181B10BD0130F2E70244034616
:10376400934200D1704703F8011BF9E71F2938B5CC
:1037740005460C4604D9162303604FF0FF3038BDCC
:10378400C26B12B152F821304BB9284600F030F820
:10379400224601462846BDE8384000F017B8012B00
:1037A4000AD0591C03D1162303600120E7E7002146
:1037B40042F82410204698470020E0E7024B0146D7
:1037C4001868FFF7D3BF00BF2000002038B5074DAD
:1037D40000230446084611462B60FEF7D8FC431C20
:1037E40002D12B6803B1236038BD00BFD40200208E
:1037F400FEF7C5BC38B5064D0023044608462B60C9
:10380400FEF7E0FC431C02D12B6803B1236038BDF2
:10381400D4020020014B1868704700BF200000202C
:1038240070B50D4D0D4C641BA4100026A64209D1A1
:103834000B4D0C4C00F072F8641BA4100026A64239
:1038440005D170BD55F8043B98470136EEE755F8AD
:10385400043B98470136F2E7143A0008143A00088A
:10386400143A0008183A0008704770470A44914215
:1038740000F1FF3300D1704710B511F8014B03F884
:10388400014F9142F9D110BD38B50546002941D008
:1038940051F8043C0C1F002BB8BFE418FFF742FF9B
:1038A4001D4A136833B9636014602846BDE8384084
:1038B400FFF73EBFA34208D9206821188B4201BFFD
:1038C40019685B6809182160EDE71A465B680BB15B
:1038D400A342FAD911685018A0420BD120680144C0
:1038E400501883421160E0D118685B685360084443
:1038F4001060DAE702D90C232B60D6E72068211880
:103904008B4204BF19685B68636004BF09182160B7
:103914005460CAE738BD00BF98010020F8B500BF65
:10392400F8BC08BC9E467047F8B500BFF8BC08BC9C
:043934009E467047F4
:103938004C6976696E6720526F6F6D004B697463CE
:1039480068656E20526F6F6D00000000426564204C
:10395800526F6F6D00000000496E6974204C43443B
:103968002073756363657300496E6974204C434422
:10397800207375636365737366756C6C0000000073
:103988004C6976696E6720526F6F6D004B6974637E
:1039980068656E20526F6F6D0000000042656420FC
:1039A800526F6F6D00000000000000000000000072
:1039B800010203040607080962617369635F73748F
:1039C80072696E673A3A5F4D5F637265617465004C
:1039D80062617369635F737472696E673A20636FBB
:1039E8006E737472756374696F6E2066726F6D2082
:1039F8006E756C6C206973206E6F742076616C69CB
:043A08006400000056
:083A0C00C8C7FF7F01000000A4
:043A1400B9010008EC
:043A1800950100080C
:103A1C0002000400080010004000800000010002B9
:103A2C00020408100024F400100000000100000043
:103A3C0024000020000000009C0100200402002053
:103A4C006C020020000000000000000000000000DC
:103A5C00000000000000000000000000000000005A
:103A6C00000000000000000000000000000000004A
:103A7C00000000000000000000000000000000003A
:040000050800233D8F
:00000001FF
