:020000040800F2
:10000000008001204514000811130008191300088E
:100010002113000829130008311300080000000014
:10002000000000000000000000000000391300087C
:100030004713000800000000551300086313000870
:1000400095140008951400089514000895140008EC
:1000500095140008951400089514000895140008DC
:1000600095140008951400089514000895140008CC
:1000700095140008951400089514000895140008BC
:10008000951400089514000895140008000000005D
:1000900000000000000000000000000095140008AF
:1000A000951400089514000895140008951400088C
:1000B000951400089514000895140008951400087C
:1000C000951400089514000895140008951400086C
:1000D000951400089514000895140008000000000D
:1000E00095140008951400089514000800000000FD
:1000F000000000000000000000000000951400084F
:1001000000000000951400089514000895140008DC
:1001100000000000000000000000000000000000DF
:10012000951400089514000895140008951400080B
:10013000951400080000000000000000000000000E
:1001400000000000000000000000000095140008FE
:1001500095140008951400089514000895140008DB
:10016000951400089514000800000000000000002D
:10017000000000000000000000000000000000007F
:1001800000000000951400080000000000000000BE
:0401900095140008BA
:1001940010B5054C237833B9044B13B10448AFF3BD
:1001A40000800123237010BD5C00002000000000CB
:1001B400E024000808B5034B1BB103490348AFF31F
:1001C400008008BD0000000060000020E02400085A
:1001D400034613F8012B002AFBD1181A0138704783
:1001E40053B94AB9002908BF00281CBF4FF0FF319A
:1001F4004FF0FF3000F088B9ADF1080C6DE904CE82
:1002040000F006F8DDF804E0DDE9022304B07047ED
:100214002DE9F047089D8E4604468846002B4AD1B6
:100224008A42174662D9B2FA82F64EB1C6F1200369
:1002340001FA06F820FA03F3B74043EA0808B44089
:100244004FEA174E1FFA87FCB8FBFEF1230C0EFB96
:10025400118843EA084301FB0CF29A4209D9FB18BE
:1002640001F1FF3080F0EA809A4240F2E7800239DF
:100274003B449A1AA3B2B2FBFEF00EFB102243EAEF
:10028400024300FB0CFC9C4509D9FB1800F1FF322A
:1002940080F0D6809C4540F2D3803B44023840EA4B
:1002A4000140A3EB0C0300211DB1F3400022C5E97A
:1002B4000032BDE8F0878B4205D90DB1C5E90001D4
:1002C40000210846F5E7B3FA83F1002946D17345C6
:1002D40002D3824200F20581841A6EEB03020120EC
:1002E4009046002DE5D0C5E90048E2E7002A00F079
:1002F4009080B2FA82F6002E40F0A4808A1A030C91
:100304004FEA174E80B2BCB20121B2FBFEFC0EFBD9
:100314001C2243EA024304FB0CF29A4207D9FB185D
:100324000CF1FF3802D29A4200F2E080C4469B1AD4
:10033400B3FBFEF20EFB123340EA034302FB04F468
:100344009C4207D9FB1802F1FF3002D29C4200F212
:10035400CA8002461B1B42EA0C40A5E7C1F12006F5
:100364008B4022FA06F71F430EFA01F420FA06F333
:100374002EFA06FE4FEA1749234300FA01F81FFA42
:1003840087FCBEFBF9F01C0C09FB10EE44EA0E449A
:1003940000FB0CFEA64502FA01F209D93C1900F152
:1003A400FF3A80F09C80A64540F2998002383C4494
:1003B400A4EB0E041FFA83FEB4FBF9F309FB134408
:1003C4004EEA044403FB0CFCA44508D93C1903F190
:1003D400FF3E80F08280A4457FD9023B3C4443EA3F
:1003E4000040A4EB0C04A0FB02EC64457346E14618
:1003F40062D35FD05DB1B8EB030264EB090404FA85
:1004040006F622FA01F31E43CC40C5E9006400213C
:100414004FE7B1FBF2FC010C41EA0E4180B240EA25
:1004240001423B4638463C46B846BE462026B1FB10
:10043400F7F1A2EB080241EA0C4166E7014618E72E
:1004440010462CE7C6F120022EFA02F3B740B14061
:1004540020FA02F24FEA174E0A43B3FBFEF8BCB28D
:100464000EFB1833110C41EA034108FB04F9B040B8
:1004740089454FEA104380B23ED9791808F1FF3C10
:1004840001D289451FD8A1EB0901B1FBFEF909FB93
:1004940004F80EFB191192B242EA0142424529D2F4
:1004A400BA1809F1FF31C4D24245C2D2A9F10201FE
:1004B4003A44BEE7F0459DD2BEEB02036CEB070C59
:1004C4000138E14696E7A7EB09094944A8F1020C73
:1004D400B1FBFEF909FB04F8DBE773467FE75046FE
:1004E40066E70846FDE63B44023A33E7ACF1020C0A
:1004F4003B441CE749469CE7A1EB0901C446B1FB18
:10050400FEF909FB04F8C4E7704700BF80B58AB060
:1005140000AF0346FB71FB79012B02D1344B7B62A4
:1005240010E0FB79032B02D1324B7B620AE0FB79AA
:10053400052B02D1304B7B6204E0FB79072B01D100
:100544002E4B7B627B6A58687B6A1B89DBB2012273
:10055400194600F09BFC00233B6218E0284B5B68C3
:100564003B6100F06FFE0346264AA2FB03239B0C6B
:100574004FF47A7202FB03F3FB60214B5A683B6928
:10058400D31AFA689A42F8D83B6A01333B623B6A51
:10059400002BE3D07B6A58687B6A1B89DBB200229C
:1005A400194600F073FC0023FB6118E0144B5B68F0
:1005B400BB6100F047FE0346124AA2FB03239B0CD7
:1005C4004FF47A7202FB03F37B610D4B5A68BB69EB
:1005D400D31A7A699A42F8D8FB690133FB61FB6943
:1005E400002BE3D000BF00BF2837BD4680BD00BF4D
:1005F40078000020A0000020C8000020F0000020A7
:10060400001000E083DE1B4380B586B000AF0346D4
:10061400FB710B46BB7113467B71BB79012B02D175
:100624003B4B7B6110E0BB79032B02D1394B7B61DF
:100634000AE0BB79052B02D1374B7B6104E0BB791F
:10064400072B01D1354B7B617B79002B2CD1072300
:100654003B6121E0FA793B6942FA03F303F00103B9
:10066400002B09D07B6918697B699B8ADBB2012264
:10067400194600F00BFC08E07B6918697B699B8ACA
:10068400DBB20022194600F001FCBB791846FFF7E3
:100694003DFF3B69013B3B613B69002BDADABB79E7
:1006A400184600F03DF82EE07B79012B2BD1002376
:1006B400FB6021E0FA79FB6842FA03F303F00103DB
:1006C400002B09D07B6918697B699B8ADBB2012204
:1006D400194600F0DBFB08E07B6918697B699B8A9B
:1006E400DBB20022194600F0D1FBBB791846FFF7B4
:1006F4000DFFFB680133FB60FB68072BDADDBB7978
:10070400184600F00DF800BF1837BD4680BD00BF85
:1007140078000020A0000020C8000020F000002085
:1007240080B58AB000AF0346FB71FB79012B02D17F
:10073400344B7B6210E0FB79032B02D1324B7B629A
:100744000AE0FB79052B02D1304B7B6204E0FB7994
:10075400072B01D12E4B7B627B6AD8697B6A1B8C89
:10076400DBB20122194600F091FB00233B6218E042
:10077400284B5B683B6100F065FD0346264AA2FBFB
:1007840003239B0C4FF47A7202FB03F3FB60214BAF
:100794005A683B69D31AFA689A42F8D83B6A01331B
:1007A4003B623B6A042BE3D97B6AD8697B6A1B8C66
:1007B400DBB20022194600F069FB0023FB6118E05C
:1007C400144B5B68BB6100F03DFD0346124AA2FB7B
:1007D40003239B0C4FF47A7202FB03F37B610D4BF2
:1007E4005A68BB69D31A7A699A42F8D8FB6901330B
:1007F400FB61FB69042BE3D900BF00BF2837BD466A
:1008040080BD00BF78000020A0000020C8000020A8
:10081400F0000020001000E083DE1B43B0B584B07C
:1008240000AFF860B96011461A460B46FB711346D7
:10083400BB71304B1B6B2F4A43F010031363BB682F
:100844002D4A5A60BB6800221A81BB6801229A7241
:10085400BB6800225A73BB680222DA72BB680122A9
:100864001A73BB680433184600F020FABB68224AA6
:100874001A61FB799AB2BB689A82BB6801229A75A5
:10088400BB6800225A76BB680222DA75BB68012273
:100894001A76BB681033184600F008FABB68164A8B
:1008A400DA61BB799AB2BB681A84BB68012283F807
:1008B4002220BB68002283F82520BB68022283F82B
:1008C4002320BB68012283F82420BB681C3318460C
:1008D40000F0ECF9FA68BB6814461D460FCD0FC44E
:1008E4000FCD0FC495E8030084E80300F8681037BF
:1008F400BD46B0BD0038024000100240B0B58CB017
:1009040000AF034687F82F3097F82F30012B12D110
:100914002D4C384697F82F2002232B49FFF77EFFF2
:1009240025463C460FCC0FC50FCC0FC594E80300F9
:1009340085E8030043E097F82F30032B12D1234CB2
:10094400384697F82F2004232049FFF767FF2546F0
:100954003C460FCC0FC50FCC0FC594E8030085E8C7
:1009640003002CE097F82F30052B12D1184C384691
:1009740097F82F2006231649FFF750FF25463C46DB
:100984000FCC0FC50FCC0FC594E8030085E8030016
:1009940015E097F82F30072B11D10D4C384697F8F6
:1009A4002F2008230B49FFF739FF25463C460FCC7F
:1009B4000FC50FCC0FC594E8030085E8030000BF02
:1009C4003037BD46B0BD00BF78000020A000002035
:1009D400C8000020F000002080B584B000AF78602B
:1009E40039602949386801F030FB0346002B0CBFFD
:1009F40001230023DBB2002B09D07B6802221A708A
:100A04007B6801225A707B6807229A7024E01F4990
:100A1400386801F01AFB0346002B0CBF01230023A6
:100A2400DBB2002B06D07B6803221A707B6803229A
:100A34005A7011E01649386801F007FB0346002B91
:100A44000CBF01230023DBB2002B05D07B680422FA
:100A54001A707B6805225A700023FB7309E0FB7B44
:100A64007A6813445B781846FFF748FFFB7B013331
:100A7400FB73FB7B042BF2D900F02EFA7B6818463B
:100A84001037BD4680BD00BFF824000804250008C7
:100A94001425000880B582B000AF78600B46FB7067
:100AA4007B685978FB7801221846FFF7ADFD00BF3B
:100AB4000837BD4680BD80B485B000AF78600023A0
:100AC400FB60E7E07B689B881A46FB6842FA03F305
:100AD40003F00103002B00F0DA800023BB607B6885
:100AE4009B79032B1DD87B689B791A46FB685B00B6
:100AF40002FA03F3BB607B681B681A68FB685B003F
:100B0400032101FA03F3DB4319467B681B680A409F
:100B14001A607B681B6819687B681B68BA680A439B
:100B24001A600023BB607B68DB79032B1DD87B68CC
:100B3400DB791A46FB685B0002FA03F3BB607B684F
:100B44001B689A68FB685B00032101FA03F3DB432B
:100B540019467B681B680A409A607B681B68996821
:100B64007B681B68BA680A439A600023BB607B6891
:100B74001B7A032B1DD87B681B7A1A46FB685B0023
:100B840002FA03F3BB607B681B68DA68FB685B00EE
:100B9400032101FA03F3DB4319467B681B680A400F
:100BA400DA607B681B68D9687B681B68BA680A438B
:100BB400DA600023BB607B685B7A012B1BD87B68FF
:100BC4005B7A1A46FB6802FA03F3BB607B681B6816
:100BD4005A680121FB6801FA03F3DB4319467B6879
:100BE4001B680A405A607B681B6859687B681B68ED
:100BF400BA680A435A600023BB607B689B7A0F2B58
:100C04001FD87B689B7A1A46FB68083B9B0002FA54
:100C140003F3BB607B681B685A6AFB68083B9B0054
:100C2400042101FA03F3DB4319467B681B680A407D
:100C34005A627B681B68596A7B681B68BA680A43F6
:100C44005A620023BB607B68DB7A0F2B1DD87B685C
:100C5400DB7A1A46FB689B0002FA03F3BB607B68ED
:100C64001B681A6AFB689B00042101FA03F3DB4347
:100C740019467B681B680A401A627B681B68196AFC
:100C84007B681B68BA680A431A620023BB60FB686E
:100C94000133FB60FB68B3F5004FFFF613AF00BFF1
:100CA40000BF1437BD465DF8047B704780B485B03F
:100CB40000AF78600023FB607B689B79032B1FD80F
:100CC4007B689B791A467B689B885B0002FA03F376
:100CD400FB607B681B681A687B689B885B00032148
:100CE40001FA03F3DB4319467B681B680A401A6068
:100CF4007B681B6819687B681B68FA680A431A607A
:100D04000023FB607B68DB79032B1FD87B68DB79CE
:100D14001A467B689B885B0002FA03F3FB607B68DE
:100D24001B689A687B689B885B00032101FA03F3C4
:100D3400DB4319467B681B680A409A607B681B6822
:100D440099687B681B68FA680A439A600023FB6011
:100D54007B681B7A032B1FD87B681B7A1A467B6837
:100D64009B885B0002FA03F3FB607B681B68DA680C
:100D74007B689B885B00032101FA03F3DB4319467C
:100D84007B681B680A40DA607B681B68D9687B68EB
:100D94001B68FA680A43DA600023FB607B685B7AAD
:100DA400012B1DD87B685B7A1A467B689B8802FA04
:100DB40003F3FB607B681B685A687B689B88194651
:100DC40001238B40DB4319467B681B680A405A6049
:100DD4007B681B6859687B681B68FA680A435A6019
:100DE4000023FB607B689B7A0F2B21D87B689B7A5E
:100DF4001A467B689B88083B9B0002FA03F3FB605E
:100E04007B681B685A6A7B689B88083B9B000421AB
:100E140001FA03F3DB4319467B681B680A405A62F4
:100E24007B681B68596A7B681B68FA680A435A62C4
:100E34000023FB607B68DB7A0F2B1FD87B68DB7A8F
:100E44001A467B689B889B0002FA03F3FB607B686D
:100E54001B681A6A7B689B889B00042101FA03F3D0
:100E6400DB4319467B681B680A401A627B681B686F
:100E7400196A7B681B68FA680A431A620023FB60DC
:100E840000BF1437BD465DF8047B704780B483B05F
:100E940000AF78600B46FB701346BB70BB78012B28
:100EA40009D17B685B69FA78012101FA02F21A43DD
:100EB4007B685A6109E07B685B69FA78012101FA71
:100EC40002F2D2431A407B685A6100BF0C37BD4618
:100ED4005DF8047B7047000080B500AF184B1B6BB6
:100EE400174A43F008031363164B174A1A60154B4D
:100EF4000F229A80134B01229A71124B00225A72CC
:100F0400104B0022DA710F4B01221A720D48FFF7C1
:100F1400D2FD0E4B0C4A1A600C4BF0229A800B4BFC
:100F240000229A71094B00225A72084B0022DA718E
:100F3400064B01221A720548FFF7BDFD00BF80BDB4
:100F44000038024018010020000C02402401002057
:100F540080B483B000AF03463960FB7197F9073062
:100F6400002B0ADB3B68DAB20C4997F9073012010F
:100F7400D2B20B4483F800230AE03B68DAB2084992
:100F8400FB7903F00F03043B1201D2B20B441A762F
:100F940000BF0C37BD465DF8047B704700E100E0FC
:100FA40000ED00E090B589B000AF786039607C68EE
:100FB40007F108033968184601F075F807F10803CA
:100FC40019462046FFF708FD07F10803184601F00B
:100FD40036F87B6818462437BD4690BD80B594B07A
:100FE40000AF00210720FFF7B3FF00F053FA00F031
:100FF4004BF900F0A3F807F12403BB6207F12402C4
:1010040007F10C034A49184601F076F807F10C027F
:101014003B1D11461846FFF7C5FF07F10C031846A0
:1010240001F00DF807F12403184600F0F7F83B1D12
:1010340080211846FFF72EFD0023FB641DE03D4B85
:101044005B683B6300F0FEF803463B4AA2FB0323C4
:101054009B0C4FF47A7202FB03F3FB62354B5A6824
:101064003B6BD31AFA6A9A428CBF01230023DBB28A
:10107400002BF3D1FB6C0133FB64FB6CB3F57A7F7B
:10108400DDD33B1D40211846FFF704FD0023BB645C
:101094001DE0284B5B68BB6300F0D4F80346264A86
:1010A400A2FB03239B0C4FF47A7202FB03F37B63D2
:1010B400204B5A68BB6BD31A7A6B9A428CBF0123BC
:1010C4000023DBB2002BF3D1BB6C0133BB64BB6CDC
:1010D400B3F57A7FDDD33B1D20211846FFF7DAFCF8
:1010E40000237B641DE0134B5B683B6400F0AAF8AB
:1010F4000346114AA2FB03239B0C4FF47A7202FBB2
:1011040003F3FB630B4B5A683B6CD31AFA6B9A429A
:101114008CBF01230023DBB2002BF3D17B6C0133A2
:101124007B647B6CB3F57A7FDDD300BFFDE700BF42
:1011340020250008001000E083DE1B4380B594B036
:1011440000AF07F1200330220021184601F0E6F831
:1011540007F10C0300221A605A609A60DA601A617F
:101164000023BB60284B1B6C274A43F08053136455
:10117400254B1B6C03F08053BB60BB6800237B6072
:10118400224B1B6823F44043204A43F4004313607A
:101194001E4B1B6803F440437B607B6802233B6265
:1011A4000123FB6210233B630023BB6307F120038D
:1011B400184600F0C7FA0346002B14BF012300238E
:1011C400DBB2002B01D000F023F80F23FB600023D7
:1011D4003B6100237B610023BB610023FB6107F1BA
:1011E4000C030021184600F025FD0346002B14BF14
:1011F40001230023DBB2002B01D000F009F800BF6B
:101204005037BD4680BD00BF00380240007000402A
:1012140080B400AF72B600BF00BFFDE780B483B0F6
:1012240000AF78607B6818460C37BD465DF8047BD8
:10123400704780B400AF00231846BD465DF8047BB8
:101244007047000080B582B000AF0C4B9B689B08D0
:10125400DBB203F00303FB71FB79002B01D1084BD4
:1012640007E0FB79012B01D1064B02E0FFF7E1FF18
:10127400034618460837BD4680BD00BF003802400B
:101284000024F40000127A0080B400AF094BDB683C
:10129400084A43F08073D360074B00225A60064B20
:1012A4001B68054A43F00103136000BFBD465DF8A7
:1012B400047B7047F0ED00E0001000E080B483B0E0
:1012C40000AF00237B60104B5B6C0F4A43F48043F8
:1012D40053640D4B5B6C03F480437B607B68002399
:1012E4003B60094B1B6C084A43F080531364064B64
:1012F4001B6C03F080533B603B6800BF0C37BD465A
:101304005DF8047B704700BF0038024080B400AF32
:1013140000BFFDE780B400AF00BFFDE780B400AFBD
:1013240000BFFDE780B400AF00BFFDE780B400AFAD
:1013340000BFFDE780B400AF00BFBD465DF8047B8D
:10134400704780B400AF00BFBD465DF8047B7047B2
:1013540080B400AF00BFBD465DF8047B704780B524
:1013640000AF00F0E9F800BF80BD80B400AF0123F6
:101374001846BD465DF8047B704780B582B000AF67
:101384007860396001F026F8034616221A604FF09F
:10139400FF3318460837BD4680BD80B582B000AF24
:1013A40078604FF0FF317868FFF7E7FF00BFFDE793
:1013B40080B586B000AF7860144A154BD31A7B61B0
:1013C4007B693B61134B1B68002B02D1114B124A02
:1013D4001A60104B1A687B6813443A699A4207D220
:1013E40000F0F8FF03460C221A604FF0FF3309E0C7
:1013F400084B1B68FB60074B1A687B681344054A5B
:101404001360FB6818461837BD4680BD0080012074
:1014140000040000300100208802002080B400AFE6
:10142400064BD3F88830054A43F47003C2F8883079
:1014340000BFBD465DF8047B704700BF00ED00E0CF
:10144400DFF834D0FFF7EAFF0C480D490D4A0023BA
:1014540002E0D458C4500433C4188C42F9D30A4A65
:101464000A4C002301E013600432A242FBD300F0D3
:10147400B7FFFFF7B3FD7047008001200000002094
:101484005C000020982500085C00002084020020F5
:10149400FEE7000080B500AF0E4B1B680D4A43F415
:1014A400007313600B4B1B680A4A43F48063136098
:1014B400084B1B68074A43F480731360032000F051
:1014C4000DF90F2000F008F8FFF7F8FE0023184686
:1014D40080BD00BF003C024080B582B000AF7860A0
:1014E400124B1A68124B1B7819464FF47A73B3FBEC
:1014F400F1F3B2FBF3F3184600F017F90346002B9F
:1015040001D001230EE07B680F2B0AD800227968F2
:101514004FF0FF3000F0EDF8064A7B6813600023BB
:1015240000E0012318460837BD4680BD00000020B6
:10153400080000200400002080B400AF064B1B7894
:101544001A46064B1B681344044A136000BFBD4689
:101554005DF8047B704700BF0800002034010020C0
:1015640080B400AF034B1B681846BD465DF8047B8E
:10157400704700BF3401002080B485B000AF7860AC
:101584007B6803F00703FB600C4BDB68BB60BA6845
:101594004FF6FF031340BB60FB681A02BB6813439A
:1015A40043F0BF6343F40033BB60044ABB68D360B9
:1015B40000BF1437BD465DF8047B704700ED00E0C2
:1015C40080B400AF044BDB681B0A03F00703184622
:1015D400BD465DF8047B704700ED00E080B483B045
:1015E40000AF03463960FB7197F90730002B0ADB23
:1015F4003B68DAB20C4997F907301201D2B20B44B6
:1016040083F800230AE03B68DAB20849FB7903F067
:101614000F03043B1201D2B20B441A7600BF0C37FD
:10162400BD465DF8047B704700E100E000ED00E09A
:1016340080B489B000AFF860B9607A60FB6803F0E9
:101644000703FB61FB69C3F10703042B28BF0423D1
:10165400BB61FB690433062B02D9FB69033B00E041
:1016640000237B614FF0FF32BB6902FA03F3DA43D4
:10167400BB681A407B699A404FF0FF317B6901FADD
:1016840003F3D9437B680B40134318462437BD4604
:101694005DF8047B7047000080B582B000AF7860CD
:1016A4007B68013BB3F1807F01D301230FE00A4A39
:1016B4007B68013B53600F214FF0FF30FFF78EFF33
:1016C400054B00229A60044B07221A600023184637
:1016D4000837BD4680BD00BF10E000E080B582B091
:1016E40000AF78607868FFF747FF00BF0837BD4652
:1016F40080BD80B586B000AF0346B9607A60FB73E5
:1017040000237B61FFF75CFF78617A68B9687869C8
:10171400FFF78EFF024697F90F3011461846FFF780
:101724005DFF00BF1837BD4680BD80B582B000AFF5
:1017340078607868FFF7B0FF034618460837BD465F
:1017440080BD000080B586B000AF78607B68002B58
:1017540001D1012367E27B681B6803F00103002BBE
:1017640075D0884B9B6803F00C03042B0CD0854B7D
:101774009B6803F00C03082B12D1824B5B6803F4C3
:101784008003B3F5800F0BD17E4B1B6803F4003349
:10179400002B5BD07B685B68002B57D1012342E2AE
:1017A4007B685B68B3F5803F06D1764B1B68754A4E
:1017B40043F4803313601DE07B685B68B3F5A02FAE
:1017C4000CD1704B1B686F4A43F4802313606D4B3C
:1017D4001B686C4A43F4803313600BE0694B1B684D
:1017E400684A23F480331360664B1B68654A23F40C
:1017F400802313607B685B68002B13D0FFF7B0FE77
:10180400386108E0FFF7ACFE02463B69D31A642B4B
:1018140001D9032307E25B4B1B6803F40033002B5D
:10182400F0D014E0FFF79CFE386108E0FFF798FE63
:1018340002463B69D31A642B01D90323F3E1514BCC
:101844001B6803F40033002BF0D100E000BF7B6879
:101854001B6803F00203002B63D04A4B9B6803F020
:101864000C03002B0BD0474B9B6803F00C03082B95
:101874001CD1444B5B6803F48003002B16D1414B0D
:101884001B6803F00203002B05D07B68DB68012B87
:1018940001D00123C7E13B4B1B6823F0F8027B68AE
:1018A4001B69DB00374913430B603AE07B68DB6854
:1018B400002B20D0344B01221A60FFF751FE38610F
:1018C40008E0FFF74DFE02463B69D31A022B01D90B
:1018D4000323A8E12B4B1B6803F00203002BF0D079
:1018E400284B1B6823F0F8027B681B69DB00254941
:1018F40013430B6015E0244B00221A60FFF730FEFF
:10190400386108E0FFF72CFE02463B69D31A022B2C
:1019140001D9032387E11B4B1B6803F00203002B4F
:10192400F0D17B681B6803F00803002B36D07B687A
:101934005B69002B16D0154B01221A60FFF710FECD
:10194400386108E0FFF70CFE02463B69D31A022B0C
:1019540001D9032367E10B4B5B6F03F00203002BF8
:10196400F0D01BE0094B00221A60FFF7F9FD386143
:101974000EE0FFF7F5FD02463B69D31A022B07D9A7
:10198400032350E10038024000004742800E4742E2
:10199400884B5B6F03F00203002BEAD17B681B6862
:1019A40003F00403002B00F097800023FB75814BA8
:1019B4001B6C03F08053002B0FD10023BB607D4BC5
:1019C4001B6C7C4A43F0805313647A4B1B6C03F00A
:1019D4008053BB60BB680123FB75774B1B6803F422
:1019E4008073002B18D1744B1B68734A43F48073C3
:1019F4001360FFF7B5FD386108E0FFF7B1FD02465B
:101A04003B69D31A022B01D903230CE16A4B1B68EF
:101A140003F48073002BF0D07B689B68012B06D104
:101A2400644B1B6F634A43F0010313671CE07B683C
:101A34009B68052B0CD15F4B1B6F5E4A43F004037C
:101A440013675C4B1B6F5B4A43F0010313670BE0A6
:101A5400584B1B6F574A23F001031367554B1B6FF9
:101A6400544A23F0040313677B689B68002B15D04A
:101A7400FFF776FD38610AE0FFF772FD02463B6925
:101A8400D31A41F28832934201D90323CBE0494B64
:101A94001B6F03F00203002BEED014E0FFF760FD90
:101AA40038610AE0FFF75CFD02463B69D31A41F254
:101AB4008832934201D90323B5E03E4B1B6F03F0F8
:101AC4000203002BEED1FB7D012B05D1394B1B6C9E
:101AD400384A23F0805313647B689B69002B00F021
:101AE400A180344B9B6803F00C03082B5CD07B680B
:101AF4009B69022B41D1314B00221A60FFF730FD64
:101B0400386108E0FFF72CFD02463B69D31A022B2B
:101B140001D9032387E0274B1B6803F00073002BD4
:101B2400F0D17B68DA697B681B6A1A437B685B6A5D
:101B34009B011A437B689B6A5B08013B1B041A43A5
:101B44007B68DB6A1B061B4913434B601B4B01225A
:101B54001A60FFF705FD386108E0FFF701FD024652
:101B64003B69D31A022B01D903235CE0114B1B6898
:101B740003F00073002BF0D054E0104B00221A60E5
:101B8400FFF7EEFC386108E0FFF7EAFC02463B6928
:101B9400D31A022B01D9032345E0064B1B6803F03B
:101BA4000073002BF0D13DE07B689B69012B07D1CA
:101BB400012338E0003802400070004060004742D2
:101BC4001B4B5B68FB607B689B69012B28D0FB681F
:101BD40003F480027B68DB699A4221D1FB6803F03D
:101BE4003F027B681B6A9A421AD1FA6847F6C073AF
:101BF40013407A68526A9201934211D1FB6803F44C
:101C040040327B689B6A5B08013B1B049A4207D104
:101C1400FB6803F070627B68DB6A1B069A4201D0A2
:101C2400012300E0002318461837BD4680BD00BFDD
:101C34000038024080B584B000AF786039607B68BA
:101C4400002B01D10123CCE0684B1B6803F0070390
:101C54003A689A420CD9654B3A68D2B21A70634B0F
:101C64001B6803F007033A689A4201D00123B8E0E5
:101C74007B681B6803F00203002B20D07B681B6881
:101C840003F00403002B05D0594B9B68584A43F4D6
:101C9400E05393607B681B6803F00803002B05D0B6
:101CA400534B9B68524A43F460439360504B9B6888
:101CB40023F0F0027B689B684D4913438B607B687B
:101CC4001B6803F00103002B44D07B685B68012B85
:101CD40007D1474B1B6803F40033002B19D10123B0
:101CE4007FE07B685B68022B03D07B685B68032B17
:101CF40007D13F4B1B6803F00073002B09D101236C
:101D04006FE03B4B1B6803F00203002B01D101235E
:101D140067E0374B9B6823F003027B685B683449B8
:101D240013438B60FFF71CFCF8600AE0FFF718FC14
:101D34000246FB68D31A41F28832934201D9032345
:101D44004FE02B4B9B6803F00C027B685B689B00A5
:101D54009A42EBD1254B1B6803F007033A689A4279
:101D64000CD2224B3A68D2B21A70204B1B6803F093
:101D740007033A689A4201D0012332E07B681B686A
:101D840003F00403002B08D0194B9B6823F4E052A2
:101D94007B68DB68164913438B607B681B6803F020
:101DA4000803002B09D0124B9B6823F460427B6824
:101DB4001B69DB000E4913438B6000F021F80246D7
:101DC4000B4B9B681B0903F00F030A49CB5C22FAF7
:101DD40003F3094A1360094B1B681846FFF77CFBA1
:101DE400002318461037BD4680BD00BF003C0240AA
:101DF400003802402C2500080000002004000020C8
:101E04002DE9B04F90B000AF00237B630023FB6348
:101E140000233B630023BB63594B9B6803F00C0313
:101E2400082B0DD0082B00F2A180002B02D0042B2C
:101E340003D09BE0534BBB639BE0534BBB6398E0E5
:101E44004F4B5B6803F03F037B634D4B5B6803F4CC
:101E54008003002B28D04A4B5B689B0900223B621D
:101E64007A623B6AC3F308000021474B03FB01F28B
:101E7400002300FB03F31344434AA0FB0212FA625B
:101E84000A46BA62FA6A1344FB627B6B0022BB61A6
:101E9400FA61D7E90623D7E90A01FEF7A1F9024658
:101EA4000B461346FB6353E0354B5B689B090022EA
:101EB4003B617A613B69C3F3080A4FF0000B524659
:101EC4005B464FF000004FF00001590141EAD26136
:101ED400500102460B46B2EB0A0863EB0B094FF0C4
:101EE40000024FF000034FEA891343EA98634FEA74
:101EF4008812B2EB080463EB09054FF000024FF0BF
:101F04000003EB0043EA5473E20014461D4614EB4D
:101F14000A033B6045EB0B037B604FF000024FF07C
:101F24000003D7E9004529468B02214643EA915331
:101F340021468A02104619467B6B0022BB60FA6078
:101F4400D7E90223FEF74CF902460B461346FB631E
:101F54000B4B5B681B0C03F0030301335B003B6317
:101F6400FA6B3B6BB2FBF3F3BB6302E0054BBB6361
:101F740000BFBB6B18464037BD46BDE8B08F00BFFD
:101F8400003802400024F40040787D010AB100F0DA
:101F94004DBA70470AB100F0B1B910467047081E37
:101FA40008B501DA00F0D3F8BDE8084000F0BEB887
:101FB40050F8083B1B1A5842584170470B68B3F15C
:101FC400804F10B502D30B4800F0C7F893420BD9E9
:101FD400B3EB420F4FEA420406D2B4F1804F2ABF5A
:101FE4006FF040430C600B6009680131FFF7D7FFC5
:101FF40010BD00BF3C250008006800F095B810B57E
:102004000446FFF7D5FF18B9A1682046FFF7F4FF8F
:1020140010BD012A10B404D10A785DF8044B027093
:1020240070475DF8044BFFF7B1BF08B5521AFFF7CC
:10203400F0FF08BD08B5521AFFF7EBFF08BD10B555
:102044000446FFF7DCFF204610BDF8B54768054697
:1020540008460E46FEF7BCF8874204463A46314627
:1020640028BF02462868FFF795FF00B9381BF8BD62
:1020740073B5531A0F2B04460D461646019306D921
:10208400002201A9FFF79AFF019B2060A36032465A
:1020940029462068FFF7C9FF019B2268636000217D
:1020A400D15402B070BD00F1080210B50260D1E94C
:1020B400001204464FF000030A44FFF7D9FF2046FC
:1020C40010BD73B5531A0F2B04460D4616460193E3
:1020D40006D9002201A9FFF771FF019B2060A360CC
:1020E400324629462068FFF7A5FF019B22686360FA
:1020F4000021D15402B070BD38B500F10803044684
:1021040003600D4611B9074800F024F80846FEF7AD
:102114005FF84FF000032A1829462046FFF7D1FF45
:10212400204638BD5425000800F032B8012838BFD5
:10213400012010B50446204600F022F800B110BD7D
:1021440000F00EF808B900F013F88047F3E708B57B
:1021540000F00EF808B500F00BF808B500F008F828
:10216400024B1868BFF35B8F704700BF3801002033
:1021740008B5062000F002F90120FFF70EF900006F
:10218400024B0146186800F02DB800BF0C00002077
:10219400024B0146186800F057B900BF0C0000203C
:1021A40070B50F4E0C463168054611B900F002F9BE
:1021B40030602146284600F0FDF8431C03D14FF05F
:1021C400FF34204670BDC41C24F00304A042F8D0A0
:1021D400211A284600F0EEF80130F2D1EFE700BFF3
:1021E4003C0100202DE9F843CD1C25F003050835FA
:1021F4000C2D38BF0C25002D064601DBA94204D95D
:102204000C2333600020BDE8F883DFF8D48000F0AD
:1022140069F8D8F800301C4644BB29463046FFF71D
:10222400BFFF431C044658D1D8F800402746002F6E
:1022340043D1002C4BD023683946304604EB0309C4
:1022440000F0B8F8814542D121686D1A294630461C
:10225400FFF7A6FF01303AD023682B442360D8F857
:1022640000305A6862BBC8F800700FE02268521B45
:1022740020D40B2A17D96119A342256018BF5960CD
:10228400636808BFC8F8001062514B60304600F024
:102294002FF804F10B00231D20F00700C21A1CBF05
:1022A4001B1AA350AFE76268A3420CBFC8F8002012
:1022B4005A60EBE723466468AEE73C467F68B6E7BE
:1022C4001A465B68A342FBD100235360DEE70C236C
:1022D4003360304600F00CF894E70560D6E700BFA1
:1022E40040010020014800F09FB800BF8002002098
:1022F400014800F09AB800BF8002002010B50139EF
:102304000244904201D1002005E0037811F8014F06
:10231400A34201D0181B10BD0130F2E7024403466A
:10232400934200D1704703F8011BF9E71F2938B520
:1023340005460C4604D9162303604FF0FF3038BD20
:10234400C26B12B152F821304BB9284600F030F874
:10235400224601462846BDE8384000F017B8012B54
:102364000AD0591C03D1162303600120E7E700219A
:1023740042F82410204698470020E0E7024B01462B
:102384001868FFF7D3BF00BF0C00002038B5074D15
:1023940000230446084611462B60FEF7EEFF431C5B
:1023A40002D12B6803B1236038BD00BF7C0200203A
:1023B400FEF7DBBF38B5064D0023044608462B6004
:1023C400FEF7F6FF431C02D12B6803B1236038BD2E
:1023D4007C020020014B1868704700BF0C000020ED
:1023E40070B50D4D0D4C641BA4100026A64209D1F6
:1023F4000B4D0C4C00F072F8641BA4100026A6428E
:1024040005D170BD55F8043B98470136EEE755F801
:10241400043B98470136F2E7902500089025000810
:102424009025000894250008704770470A4491429B
:1024340000F1FF3300D1704710B511F8014B03F8D8
:10244400014F9142F9D110BD38B50546002941D05C
:1024540051F8043C0C1F002BB8BFE418FFF742FFEF
:102464001D4A136833B9636014602846BDE83840D8
:10247400FFF73EBFA34208D9206821188B4201BF51
:1024840019685B6809182160EDE71A465B680BB1AF
:10249400A342FAD911685018A0420BD12068014414
:1024A400501883421160E0D118685B685360084497
:1024B4001060DAE702D90C232B60D6E720682118D4
:1024C4008B4204BF19685B68636004BF091821600C
:1024D4005460CAE738BD00BF40010020F8B500BF12
:1024E400F8BC08BC9E467047F8B500BFF8BC08BCF1
:0424F4009E46704749
:1024F8004C6976696E6720526F6F6D004B69746323
:1025080068656E20526F6F6D0000000042656420A0
:10251800526F6F6D000000004C6976696E6720523B
:102528006F6F6D000000000000000000010203044E
:102538000607080962617369635F737472696E677D
:102548003A3A5F4D5F6372656174650062617369F1
:10255800635F737472696E673A20636F6E73747227
:10256800756374696F6E2066726F6D206E756C6C22
:10257800206973206E6F742076616C6964000000B6
:082588004CDCFF7F01000000A4
:04259000B901000885
:0425940095010008A5
:102598000024F400100000000100000010000020DA
:1025A8000000000044010020AC01002014020020BB
:1025B8000000000000000000000000000000000013
:1025C8000000000000000000000000000000000003
:1025D80000000000000000000000000000000000F3
:0C25E800000000000000000000000000E7
:040000050800144596
:00000001FF
