:020000040800F2
:1000000000000220590A0008A90A0008A90A0008ED
:10001000A90A0008A90A0008A90A000800000000AF
:10002000000000000000000000000000A90A000815
:10003000A90A000800000000A90A0008A90A00088F
:10004000A90A0008A90A0008A90A0008A90A0008C4
:10005000A90A0008A90A0008A90A0008A90A0008B4
:10006000A90A0008A90A0008A90A0008A90A0008A4
:10007000A90A0008A90A0008A90A0008A90A000894
:10008000A90A0008A90A0008A90A0008000000003F
:10009000000000000000000000000000A90A0008A5
:1000A000A90A0008A90A0008A90A0008A90A000864
:1000B000A90A0008A90A0008A90A0008A90A000854
:1000C000A90A0008A90A0008A90A0008A90A000844
:1000D000A90A0008A90A0008A90A000800000000EF
:1000E000A90A0008A90A0008A90A000800000000DF
:1000F000000000000000000000000000A90A000845
:1001000000000000A90A0008A90A0008A90A0008BE
:1001100000000000000000000000000000000000DF
:10012000A90A0008A90A0008A90A0008A90A0008E3
:10013000A90A000800000000000000000000000004
:10014000000000000000000000000000A90A0008F4
:10015000A90A0008A90A0008A90A0008A90A0008B3
:10016000A90A0008A90A0008000000000000000019
:10017000000000000000000000000000000000007F
:10018000000000000000000000000000000000006F
:08019000A90A0008A90A0008F1
:1001980010B5054C237833B9044B13B10448AFF3B9
:1001A80000800123237010BD5000002000000000D3
:1001B800EC0F000808B5034B1BB103490348AFF324
:1001C800008008BD0000000054000020EC0F00086B
:1001D800034613F8012B002AFBD1181A013870477F
:1001E80080B584B000AF0346FB71FB79002B02D1C8
:1001F800134BFB6007E0FB79012B02D1114BFB602D
:1002080001E0114BFB60FB685868FB681B7A012210
:10021800194600F004FB4FF4FA7000F0A3F9FB68EC
:100228005868FB681B7A0022194600F0F8FA4FF468
:10023800FA7000F097F900BF1037BD4680BD00BFC7
:100248006C00002094000020BC00002080B584B021
:1002580000AF03460A46FB711346BB71BB79002BFE
:1002680002D11C4BFB6007E0BB79012B02D11A4B72
:10027800FB6001E0194BFB600023BB601FE0FA79CB
:10028800BB6842FA03F303F00103002B08D0FB68B4
:100298001869FB681B7D0122194600F0C0FA07E0C7
:1002A800FB681869FB681B7D0022194600F0B7FA45
:1002B800BB791846FFF794FFBB680133BB60BB6886
:1002C800072BDCDDBB79184600F00AF800BF1037B1
:1002D800BD4680BD6C00002094000020BC000020BA
:1002E80080B584B000AF0346FB71FB79002B02D1C7
:1002F800144BFB6007E0FB79012B02D1124BFB602A
:1003080001E0124BFB60FB68D869FB6893F820306A
:100318000122194600F083FA4FF4FA7000F022F92E
:10032800FB68D869FB6893F820300022194600F072
:1003380076FA4FF4FA7000F015F900BF1037BD4691
:1003480080BD00BF6C00002094000020BC0000208D
:10035800B0B584B000AFF860B9601346FB71304B9C
:100368001B6B2F4A43F010031363BB682D4A5A6076
:10037800BB6800221A72BB6801225A72BB6800224D
:100388001A73BB6802229A72BB680122DA72BB68D0
:100398000433184600F053F9BB68224A1A61BB6857
:1003A800FA791A75BB6801225A75BB6800221A7659
:1003B800BB6802229A75BB680122DA75BB681033E4
:1003C800184600F03CF9BB68164ADA61BB6801229E
:1003D80083F82020BB68012283F82120BB68002213
:1003E80083F82420BB68022283F82220BB680122FC
:1003F80083F82320BB681C33184600F020F9FA68FC
:10040800BB6814461D460FCD0FC40FCD0FC495E829
:10041800030084E80300F8681037BD46B0BD00BF8C
:100428000038024000100240B0B58CB000AF03465F
:1004380087F82F3097F82F30022B11D1204C3B46EC
:1004480002221F491846FFF783FF25463C460FCC7A
:100458000FC50FCC0FC594E8030085E803002AE018
:1004680097F82F30032B11D1164C3B460322154920
:100478001846FFF76DFF25463C460FCC0FC50FCC3D
:100488000FC594E8030085E8030014E097F82F30BF
:10049800042B10D10C4C3B4604220B491846FFF79D
:1004A80057FF25463C460FCC0FC50FCC0FC594E827
:1004B800030085E8030000BF3037BD46B0BD00BF6C
:1004C8006C00002094000020BC00002080B400AF25
:1004D800134B1B6C124A43F008031364114B592247
:1004E8001A60114B4FF6FF721A60104B1B680F4AC7
:1004F80043F00103136006E000BF0D4B1B6803F0D7
:100508000103002BF9D00A4B1B6803F00103002BF1
:10051800F2D000BF00BFBD465DF8047B704700BF46
:1005280000380240280C00402C0C0040000C004011
:10053800100C004080B483B000AF0346FB80084B2A
:1005480000221A6000BF064B1A68FB889A42FAD349
:1005580000BF00BF0C37BD465DF8047B704700BF85
:10056800240C004080B584B000AF0346FB80002314
:10057800FB8105E03220FFF7DDFFFB890133FB81BA
:10058800FA89FB889A42F5D300BF00BF1037BD46F1
:1005980080BD000080B582B000AF786039601C492A
:1005A800386800F0DEFA0346002B0CBF0123002355
:1005B800DBB2002B03D07B6802221A701EE01549BB
:1005C800386800F0CEFA0346002B0CBF0123002345
:1005D800DBB2002B03D07B6803221A700EE00E49B1
:1005E800386800F0BEFA0346002B0CBF0123002335
:1005F800DBB2002B02D07B6804221A707B681B7860
:100608001846FFF711FF7B6818460837BD4680BDBE
:1006180004100008101000082010000880B582B0EF
:1006280000AF78600B46FB707B681A78FB78114640
:100638001846FFF70BFE00BF0837BD4680BD80B4E3
:1006480085B000AF78600023FB607B685B79032B83
:100658001FD87B685B791A467B681B795B0002FAB6
:1006680003F3FB607B681B681A687B681B795B0077
:10067800032101FA03F3DB4319467B681B680A4030
:100688001A607B681B6819687B681B68FA680A43EC
:100698001A600023FB607B689B79032B1FD87B685B
:1006A8009B791A467B681B795B0002FA03F3FB60AF
:1006B8007B681B689A687B681B795B00032101FAD9
:1006C80003F3DB4319467B681B680A409A607B6822
:1006D8001B6899687B681B68FA680A439A6000235C
:1006E800FB607B68DB79032B1FD87B68DB791A46B4
:1006F8007B681B795B0002FA03F3FB607B681B686D
:10070800DA687B681B795B00032101FA03F3DB439A
:1007180019467B681B680A40DA607B681B68D968E1
:100728007B681B68FA680A43DA600023FB607B6811
:100738001B7A012B1DD87B681B7A1A467B681B79AC
:1007480002FA03F3FB607B681B685A687B681B79B5
:10075800194601238B40DB4319467B681B680A4016
:100768005A607B681B6859687B681B68FA680A438B
:100778005A600023FB607B685B7A0F2B21D87B686B
:100788005B7A1A467B681B79083B9B0002FA03F3E5
:10079800FB607B681B685A6A7B681B79083B9B0077
:1007A800042101FA03F3DB4319467B681B680A40FE
:1007B8005A627B681B68596A7B681B68FA680A4337
:1007C8005A620023FB607B689B7A0F2B1FD87B68DB
:1007D8009B7A1A467B681B799B0002FA03F3FB603D
:1007E8007B681B681A6A7B681B799B00042101FAE5
:1007F80003F3DB4319467B681B680A401A627B686F
:100808001B68196A7B681B68FA680A431A62002326
:10081800FB6000BF1437BD465DF8047B704780B4A9
:1008280083B000AF78600B46FB701346BB70BB7893
:10083800012B09D17B685B69FA78012101FA02F280
:100848001A437B685A6109E07B685B69FA78012181
:1008580001FA02F2D2431A407B685A6100BF0C3792
:10086800BD465DF8047B704790B589B000AF7860ED
:1008780039607C6807F108033968184600F09FF969
:1008880007F1080319462046FFF784FE07F108031D
:10089800184600F060F97B6818462437BD4690BDBD
:1008A80080B59CB000AFFFF711FE07F128037B6607
:1008B80007F1280207F110033049184600F0A8F99B
:1008C80007F1100207F10C0311461846FFF7CCFF99
:1008D80007F11003184600F03EF907F128031846FF
:1008E80000F052F807F14403BB6607F1440207F130
:1008F8002C032349184600F08BF907F12C0207F165
:10090800080311461846FFF7AFFF07F12C031846F6
:1009180000F021F907F14403184600F035F807F113
:100928006003FB6607F1600207F1480315491846A2
:1009380000F06EF907F148023B1D11461846FFF713
:1009480093FF07F14803184600F005F907F1600323
:10095800184600F019F807F10C0380211846FFF734
:100968005DFE07F1080304211846FFF757FE3B1DFB
:1009780008211846FFF752FE00BFFDE72C100008BB
:10098800381000084810000880B483B000AF7860C1
:100998007B6818460C37BD465DF8047B704780B409
:1009A80000AF01231846BD465DF8047B704780B54B
:1009B80082B000AF7860396000F090FA03461622E2
:1009C8001A604FF0FF3318460837BD4680BD80B522
:1009D80082B000AF78604FF0FF317868FFF7E7FF2B
:1009E80000BFFDE780B586B000AF7860144A154BAC
:1009F800D31A7B617B693B61134B1B68002B02D1C7
:100A0800114B124A1A60104B1A687B6813443A69F2
:100A18009A4207D200F062FA03460C221A604FF09D
:100A2800FF3309E0084B1B68FB60074B1A687B68BB
:100A38001344054A1360FB6818461837BD4680BD45
:100A48000000022000040000E4000020380200201A
:100A58000D488546AFF300800C480D490D4A002328
:100A680002E0D458C4500433C4188C42F9D30A4A5B
:100A78000A4C002301E013600432A242FBD300F0C9
:100A880033FAFFF70DFFFEE7000002200000002008
:100A980050000020AC100008500000203402002054
:100AA800FEE70AB100F046BA70470AB100F0B2B9E1
:100AB80010467047081E08B501DA00F0D4F8BDE802
:100AC800084000F0BFB850F8083B1B1A584258417C
:100AD800704700000B68B3F1804F10B502D30B4884
:100AE80000F0C7F893420BD9B3EB420F4FEA420428
:100AF80006D2B4F1804F2ABF6FF040430C600B6000
:100B080009680131FFF7D6FF10BD00BF511000087A
:100B1800006800F095B810B50446FFF7D4FF18B97F
:100B2800A1682046FFF7F4FF10BD012A10B404D1D4
:100B38000A785DF8044B027070475DF8044BFFF7C4
:100B4800B0BF08B5521AFFF7F0FF08BD08B5521A32
:100B5800FFF7EBFF08BD10B50446FFF7DCFF2046A2
:100B680010BDF8B54768054608460E46FFF730FB46
:100B7800874204463A46314628BF02462868FFF7AE
:100B880094FF00B9381BF8BD73B5531A0F2B0446F0
:100B98000D461646019306D9002201A9FFF79AFFD0
:100BA800019B2060A360324629462068FFF7C9FFF1
:100BB800019B226863600021D15402B070BD00F12E
:100BC800080210B50260D1E9001204464FF0000394
:100BD8000A44FFF7D9FF204610BD73B5531A0F2BEF
:100BE80004460D461646019306D9002201A9FFF7CF
:100BF80071FF019B2060A360324629462068FFF7F9
:100C0800A5FF019B226863600021D15402B070BD2A
:100C180038B500F10803044603600D4611B90748CA
:100C280000F024F80846FFF7D3FA4FF000032A181B
:100C380029462046FFF7D1FF204638BD6910000835
:100C480000F032B8012838BF012010B5044620460C
:100C580000F022F800B110BD00F00EF808B900F05D
:100C680013F88047F3E708B500F00EF808B500F070
:100C78000BF808B500F008F8024B1868BFF35B8F53
:100C8800704700BFE800002008B5062000F0FAF819
:100C98000120FFF79CFE0000024B0146186800F097
:100CA8002DB800BF00000020024B0146186800F074
:100CB8004FB900BF0000002070B50F4E0C463168D8
:100CC800054611B900F0FAF830602146284600F0D0
:100CD800F5F8431C03D14FF0FF34204670BDC41C07
:100CE80024F00304A042F8D0211A284600F0E6F8C0
:100CF8000130F2D1EFE700BFEC0000202DE9F84306
:100D0800CD1C25F0030508350C2D38BF0C25002D0A
:100D1800064601DBA94204D90C2333600020BDE854
:100D2800F883DFF8D48000F069F8D8F800301C4662
:100D380044BB29463046FFF7BFFF431C044658D141
:100D4800D8F800402746002F43D1002C4BD0236809
:100D58003946304604EB030900F0B0F8814542D12A
:100D680021686D1A29463046FFF7A6FF01303AD0B0
:100D780023682B442360D8F800305A6862BBC8F84F
:100D880000700FE02268521B20D40B2A17D9611972
:100D9800A342256018BF5960636808BFC8F80010EF
:100DA80062514B60304600F02FF804F10B00231D10
:100DB80020F00700C21A1CBF1B1AA350AFE76268D5
:100DC800A3420CBFC8F800205A60EBE723466468CA
:100DD800AEE73C467F68B6E71A465B68A342FBD19C
:100DE80000235360DEE70C233360304600F00CF834
:100DF80094E70560D6E700BFF0000020014800F046
:100E080097B800BF30020020014800F092B800BF38
:100E18003002002010B501390244904201D100206F
:100E280005E0037811F8014FA34201D0181B10BD4B
:100E38000130F2E71F2938B505460C4604D91623B8
:100E480003604FF0FF3038BDC26B12B152F8213049
:100E58004BB9284600F030F8224601462846BDE83E
:100E6800384000F017B8012B0AD0591C03D11623BB
:100E780003600120E7E7002142F824102046984744
:100E88000020E0E7024B01461868FFF7D3BF00BF18
:100E98000000002038B5074D0023044608461146D7
:100EA8002B60FFF784FD431C02D12B6803B123603C
:100EB80038BD00BF2C020020FFF771BD38B5064DC4
:100EC8000023044608462B60FFF78CFD431C02D123
:100ED8002B6803B1236038BD2C020020014B186831
:100EE800704700BF0000002070B50D4D0D4C641B0D
:100EF800A4100026A64209D10B4D0C4C00F072F844
:100F0800641BA4100026A64205D170BD55F8043B09
:100F180098470136EEE755F8043B98470136F2E763
:100F2800A4100008A4100008A4100008A8100008C5
:100F3800704770470A44914200F1FF3300D170476F
:100F480010B511F8014B03F8014F9142F9D110BDCA
:100F580038B50546002941D051F8043C0C1F002B38
:100F6800B8BFE418FFF74AFF1D4A136833B9636036
:100F780014602846BDE83840FFF746BFA34208D9A9
:100F8800206821188B4201BF19685B680918216025
:100F9800EDE71A465B680BB1A342FAD911685018FD
:100FA800A0420BD120680144501883421160E0D15F
:100FB80018685B68536008441060DAE702D90C23AC
:100FC8002B60D6E7206821188B4204BF19685B683C
:100FD800636004BF091821605460CAE738BD00BFC8
:100FE800F0000020F8B500BFF8BC08BC9E4670476A
:0C0FF800F8B500BFF8BC08BC9E4670476E
:101004004C6976696E6720526F6F6D004B6974632B
:1010140068656E20526F6F6D0000000042656420A9
:10102400526F6F6D000000004C6976696E67205244
:101034006F6F6D004B69746368656E20526F6F6DDE
:101044000000000042656420526F6F6D006261739E
:1010540069635F737472696E673A3A5F4D5F637276
:10106400656174650062617369635F737472696E4C
:10107400673A20636F6E737472756374696F6E2060
:1010840066726F6D206E756C6C206973206E6F7460
:081094002076616C6964000024
:08109C003CF1FF7F01000000A0
:0410A400BD01000882
:0410A80099010008A2
:1010AC000400002000000000F40000205C0100207F
:1010BC00C40100200000000000000000000000003F
:1010CC000000000000000000000000000000000014
:1010DC000000000000000000000000000000000004
:1010EC0000000000000000000000000000000000F4
:0400000508000A598C
:00000001FF
